:020000040000FA
:10000000020721020803FFFFFFFFFF02080BFFFFAB
:10001000FFFFFF020813FFFFFFFFFF02081BFFFFA8
:10002000FFFFFF020823FFFFFFFFFF02082BFFFF78
:10003000FFFFFF020833FFFFFFFFFF02083BFFFF48
:10004000FFFFFF020843FFFFFFFFFF02084BFFFF18
:10005000FFFFFF020853FFFFFFFFFF02085BFFFFE8
:10006000FFFFFF020863FFFFFFFFFF02086BFFFFB8
:10007000FFFFFF020873FFFFFFFFFF02087BFFFF88
:10008000FFFFFF020883FFFFFFFFFF02088B78FFDF
:10009000FFFF040000000100000000000000060057
:1000A00000000008000074B01206B153BEFBE59DCD
:1000B000A2E650FA0078F8790100E824FF18E93444
:1000C000FFF9E84970F375C600E59E70FC43BE0475
:1000D0009062707408F0C28043FD0175860043C5CC
:1000E0000B75C2D843C52043F10143F43853F4FBE8
:1000F000D29243FE0453F5F74386407401F5D5745C
:1001000009F5D48029900101E0F8A3E0F9A3E8F013
:10011000A3E9F075080175090078081207007C0151
:100120007D017A227B021204E2740212067D7508B8
:100130000875090078081207007C017D017A887B28
:1001400000790112046C740212067D900101E0F83E
:10015000A3E0F9A3E0687003A3E069700902080056
:10016000745012067D22E84970030202037E007F6C
:10017000008E0C8E0D8E0E8E0F806F900115C0823A
:10018000850C08850D09850E0A850F0B90011178E5
:10019000081206ED758301D082780812064350429A
:1001A000750801750900780812070074021207111A
:1001B0008808890978081207007900AA0CAB0DACF1
:1001C0000EAD0F12035C740412067D85188285192A
:1001D00083E0F9EEFAEFFB12032A8A088B09AE08D6
:1001E000AF09900119780C1206ED900105780C12F8
:1001F00006435087900101E06E7003A3E06F700327
:10020000020105750800750902750A45750B00782D
:100210000A120700740D120711880A890B780A1256
:100220000700790190011D12074C12035C7404123F
:10023000067D750A06750B00780A1207007407120E
:100240000711880A890B780A1207007901741512C0
:100250000758E0F50AA3E0F50BAA0AFBE4FCFD123F
:10026000035C740412067D75140075150075160084
:10027000751700802B8E0A750B00780A1207007420
:1002800003120719AA08AB091204E2740212067DD0
:100290000508E5087002050990011578141206EDAD
:1002A00074071207587814120643500302012E7582
:1002B0000A04750B00780A120700740312071188EC
:1002C0000A890B780A1207007E0185140C85150D2A
:1002D00085160E85170F7415120758E0F510A3E068
:1002E000F511E4F512F513780C79101206DA900185
:1002F00021780C1206EDAA0CAB0DAC0EAD0FEEF989
:1003000012035C740412067DA808E5095401F9E89B
:10031000496003020275880A85090B7409780A127C
:100320000730A90A12054A0202757808EB5480606A
:1003300004D2F08002C2F0EA25E0FAEB33FBE9A236
:10034000E7500474014AFAA2F0500874216AFA7462
:10035000106BFBE9C333F918E870D12274F1120570
:10036000618A088B098C0A8D0BE9FE740F120758FD
:10037000E0F50CA3E0F50D7411120758E0F50EA39B
:10038000E0F50FEE6014780E120700780C120700EB
:100390001203DA740412067D802F9001257808126A
:1003A00006ED780E120700AC0CAD0D85080C850922
:1003B0000DAA0CE50D5407FB740B7808120698A9DA
:1003C0000812046C740212067D7F080205C753866A
:1003D000FD89C1E586A2E150FA2274F11205618A15
:1003E0000C8B0D8C0E8D0FC29279051203CEE5C1D8
:1003F000A2E040F5D2920000C292790B1203CE85A2
:100400000C08850D09850E0A850F0B7410780812EB
:100410000698A9081203CE850D09A9091203CE85F5
:100420000C08A9081203CE79001203CE740F12072C
:1004300058E0FEA3E0FF7411120758E0F508A3E0AE
:10044000F509801179001203CEE5C18E828F83F009
:10045000A3AE82AF83A808A909E824FFF508E93410
:10046000FFF509E84970DDD2920203C974F512055F
:10047000618908740F5508F50A750B00740B780A2A
:100480001206C7EA2400F8EB3480F9E82400E935C5
:100490000BF985C709E508C4540FFAE5C754F84AB3
:1004A000F5C7740B120758E0FAA3E0FB801C8882A2
:1004B0008983E08C828D83F088828983A3A882A9B6
:1004C000838C828D83A3AC82AD83EAFEEBFFEE24A6
:1004D000FF1AEF34FFFBEE4F70D48509C77F04028B
:1004E00005C774F7120561ECFEED900109F0EEA36B
:1004F000F0A37462F0A37473F0A3E0541FF07409C6
:10050000120758E0F508A3E0F509E508333354FC79
:1005100090010EF074067808120730E50890010D7E
:10052000F090010F7412F0A37442F075D1FE75D6ED
:1005300001EA906271F0EBA3F0906270E0D2E1F01A
:10054000E0A2E740FB7F020205C7C082C083E9C387
:1005500033906272F0906270E0D2E0F0D083D0828B
:10056000222518C582C0E0E51934FFC583C0E0E547
:1005700018C3958224F910AF0885831985821880E5
:1005800008858319858218D2AFCEF0A3E520F0A3A9
:100590007808E608F0A3DEFAEFF0A3E58124FBF883
:1005A000E608F0A3E608F0A30808E608F0A3E608CA
:1005B000F0A315811581D0E0FED0E0F815811581FA
:1005C000E8C0E0EEC0E022851983851882E0A3FE32
:1005D000E0A3F5207808E0A3F608DFFAE0A3FFE047
:1005E000A3C0E0E0A3C0E0E0A3C0E0E0A3C0E0104F
:1005F000AF0885821885831980088582188583193C
:10060000D2AFD083D08222E49001017811790180A9
:1006100002F0A3D8FCD9FA7A117B0190008E7819E8
:1006200079018015E493A3AD82AE838A828B83F037
:10063000A3AA82AB838D828E83D8E9D9E71200A664
:10064000120762C008C3E096F50808A3E0964208C6
:1006500008A3E096420808A3E09645087001D3D0AD
:1006600008222518F58210AF08F518400C151980DE
:1006700008F51840021519D2AF8519832200C0D0A1
:10068000251810AF08F518500C05198008F51850FA
:10069000020519D2AFD0D0226016080808C6C313CD
:1006A000C618C613C618C613C618C613C6D5E0EAC0
:1006B00022251810AF08F518400C15198008F518F8
:1006C00040021519D2AF22700422600D18C6C33340
:1006D000C608C633C6D5E0F41822E627F60809E6B0
:1006E00037F60809E637F60809E637F622E026F677
:1006F00008A3E036F608A3E036F608A3E036F622B3
:1007000074028000C0E0F404120662D0E012073FD9
:10071000222518F8E43519F9222518FCE43519FDCD
:100720002275D00075813F75180175190102060701
:10073000600C08C6C313C618C613C6D5E0F422CA97
:10074000C0E0E6F0A308DAFAD0E0FA22E0FAA3E08B
:10075000FBA3E0FCA3E0FD222518F582E43519F5A2
:10076000832200000080FBFFFFFFFFFFFFFFFFFF72
:10077000FFFFFFFFFFFFFFFFFFFFFFFFFFFFFFFF89
:10078000FFFFFFFFFFFFFFFFFFFFFFFFFFFFFFFF79
:10079000FFFFFFFFFFFFFFFFFFFFFFFFFFFFFFFF69
:1007A000FFFFFFFFFFFFFFFFFFFFFFFFFFFFFFFF59
:1007B000FFFFFFFFFFFFFFFFFFFFFFFFFFFFFFFF49
:1007C000FFFFFFFFFFFFFFFFFFFFFFFFFFFFFFFF39
:1007D000FFFFFFFFFFFFFFFFFFFFFFFFFFFFFFFF29
:1007E000FFFFFFFFFFFFFFFFFFFFFFFFFFFFFFFF19
:1007F000FFFFFFFFFFFFFFFFFFFFFFFFFFFFFFFF09
:0400000500000721CF
:00000001FF
