:020000040000FA
:10000000020721020803FFFFFFFFFF02080BFFFFAB
:10001000FFFFFF020813FFFFFFFFFF02081BFFFFA8
:10002000FFFFFF020823FFFFFFFFFF02082BFFFF78
:10003000FFFFFF020833FFFFFFFFFF02083BFFFF48
:10004000FFFFFF020843FFFFFFFFFF02084BFFFF18
:10005000FFFFFF020853FFFFFFFFFF02085BFFFFE8
:10006000FFFFFF020863FFFFFFFFFF02086BFFFFB8
:10007000FFFFFF020873FFFFFFFFFF02087BFFFF88
:10008000FFFFFF020883FFFFFFFFFF02088B78FFDF
:10009000FFFF040000000100000000000000060057
:1000A00000000008000074B01206B153BEFBE59DCD
:1000B000A2E650FA0078F8790100E824FF18E93444
:1000C000FFF9E84970F375C600E59E70FC43BE0475
:1000D0009062707408F0C28043FD0175860043C5CC
:1000E0000B75C2D843C52043F10143F43853F4FBE8
:1000F000D29243FE0453F5F74386407401F5D5745C
:1001000009F5D48029900101E0F8A3E0F9A3E8F013
:10011000A3E9F075080175090078081207007C0151
:100120007D017A227B021204E2740212067D7508B8
:100130000875090078081207007C017D017A887B28
:1001400000790112046C740212067D900101E0F83E
:10015000A3E0F9A3E0687003A3E069700902080056
:10016000745012067D22E84970030202037E007F6C
:10017000008E0C8E0D8E0E8E0F806F900115C0823A
:10018000850C08850D09850E0A850F0B90011178E5
:10019000081206ED758301D082780812064350429A
:1001A000750801750900780812070074021207111A
:1001B0008808890978081207007900AA0CAB0DACF1
:1001C0000EAD0F12035C740412067D85188285192A
:1001D00083E0F9EEFAEFFB12032A8A088B09AE08D6
:1001E000AF09900119780C1206ED900105780C12F8
:1001F00006435087900101E06E7003A3E06F700327
:10020000020105750800750902750A45750B00782D
:100210000A120700740D120711880A890B780A1256
:100220000700790190011D12074C12035C7404123F
:10023000067D750A06750B00780A1207007407120E
:100240000711880A890B780A1207007901741512C0
:100250000758E0F50AA3E0F50BAA0AFBE4FCFD123F
:10026000035C740412067D75140075150075160084
:10027000751700802B8E0A750B00780A1207007420
:1002800003120719AA08AB091204E2740212067DD0
:100290000508E5087002050990011578141206EDAD
:1002A00074071207587814120643500302012E7582
:1002B0000A04750B00780A120700740312071188EC
:1002C0000A890B780A1207007E0185140C85150D2A
:1002D00085160E85170F7415120758E0F510A3E068
:1002E000F511E4F512F513780C79101206DA900185
:1002F00021780C1206EDAA0CAB0DAC0EAD0FEEF989
:1003000012035C740412067DA808E5095401F9E89B
:10031000496003020275880A85090B7409780A127C
:100320000730A90A12054A0202757808EB5480606A
:1003300004D2F08002C2F0EA25E0FAEB33FBE9A236
:10034000E7500474014AFAA2F0500874216AFA7462
:10035000106BFBE9C333F918E870D12274F1120570
:10036000618A088B098C0A8D0BE9FE740F120758FD
:10037000E0F50CA3E0F50D7411120758E0F50EA39B
:10038000E0F50FEE6014780E120700780C120700EB
:100390001203DA740412067D802F9001257808126A
:1003A00006ED780E120700AC0CAD0D85080C850922
:1003B0000DAA0CE50D5407FB740B7808120698A9DA
:1003C0000812046C740212067D7F080205C753866A
:1003D000FD89C1E586A2E150FA2274F11205618A15
:1003E0000C8B0D8C0E8D0FC29279051203CEE5C1D8
:1003F000A2E040F5D2920000C292790B1203CE85A2
:100400000C08850D09850E0A850F0B7410780812EB
:100410000698A9081203CE850D09A9091203CE85F5
:100420000C08A9081203CE79001203CE740F12072C
:1004300058E0FEA3E0FF7411120758E0F508A3E0AE
:10044000F509801179001203CEE5C18E828F83F009
:10045000A3AE82AF83A808A909E824FFF508E93410
:10046000FFF509E84970DDD2920203C974F512055F
:10047000618908740F5508F50A750B00740B780A2A
:100480001206C7EA2400F8EB3480F9E82400E935C5
:100490000BF985C709E508C4540FFAE5C754F84AB3
:1004A000F5C7740B120758E0FAA3E0FB801C8882A2
:1004B0008983E08C828D83F088828983A3A882A9B6
:1004C000838C828D83A3AC82AD83EAFEEBFFEE24A6
:1004D000FF1AEF34FFFBEE4F70D48509C77F04028B
:1004E00005C774F7120561ECFEED900109F0EEA36B
:1004F000F0A37462F0A37473F0A3E0541FF07409C6
:10050000120758E0F508A3E0F509E508333354FC79
:1005100090010EF074067808120730E50890010D7E
:10052000F090010F7412F0A37442F075D1FE75D6ED
:1005300001EA906271F0EBA3F0906270E0D2E1F01A
:10054000E0A2E740FB7F020205C7C082C083E9C387
:1005500033906272F0906270E0D2E0F0D083D0828B
:10056000222518C582C0E0E51934FFC583C0E0E547
:1005700018C3958224F910AF0885831985821880E5
:1005800008858319858218D2AFCEF0A3E520F0A3A9
:100590007808E608F0A3DEFAEFF0A3E58124FBF883
:1005A000E608F0A3E608F0A30808E608F0A3E608CA
:1005B000F0A315811581D0E0FED0E0F815811581FA
:1005C000E8C0E0EEC0E022851983851882E0A3FE32
:1005D000E0A3F5207808E0A3F608DFFAE0A3FFE047
:1005E000A3C0E0E0A3C0E0E0A3C0E0E0A3C0E0104F
:1005F000AF0885821885831980088582188583193C
:10060000D2AFD083D08222E49001017811790180A9
:1006100002F0A3D8FCD9FA7A117B0190008E7819E8
:1006200079018015E493A3AD82AE838A828B83F037
:10063000A3AA82AB838D828E83D8E9D9E71200A664
:10064000120762C008C3E096F50808A3E0964208C6
:1006500008A3E096420808A3E09645087001D3D0AD
:1006600008222518F58210AF08F518400C151980DE
:1006700008F51840021519D2AF8519832200C0D0A1
:10068000251810AF08F518500C05198008F51850FA
:10069000020519D2AFD0D0226016080808C6C313CD
:1006A000C618C613C618C613C618C613C6D5E0EAC0
:1006B00022251810AF08F518400C15198008F518F8
:1006C00040021519D2AF22700422600D18C6C33340
:1006D000C608C633C6D5E0F41822E627F60809E6B0
:1006E00037F60809E637F60809E637F622E026F677
:1006F00008A3E036F608A3E036F608A3E036F622B3
:1007000074028000C0E0F404120662D0E012073FD9
:10071000222518F8E43519F9222518FCE43519FDCD
:100720002275D00075813F75180175190102060701
:10073000600C08C6C313C618C613C6D5E0F422CA97
:10074000C0E0E6F0A308DAFAD0E0FA22E0FAA3E08B
:10075000FBA3E0FCA3E0FD222518F582E43519F5A2
:10076000832200000080FBFFFFFFFFFFFFFFFFFF72
:10077000FFFFFFFFFFFFFFFFFFFFFFFFFFFFFFFF89
:10078000FFFFFFFFFFFFFFFFFFFFFFFFFFFFFFFF79
:10079000FFFFFFFFFFFFFFFFFFFFFFFFFFFFFFFF69
:1007A000FFFFFFFFFFFFFFFFFFFFFFFFFFFFFFFF59
:1007B000FFFFFFFFFFFFFFFFFFFFFFFFFFFFFFFF49
:1007C000FFFFFFFFFFFFFFFFFFFFFFFFFFFFFFFF39
:1007D000FFFFFFFFFFFFFFFFFFFFFFFFFFFFFFFF29
:1007E000FFFFFFFFFFFFFFFFFFFFFFFFFFFFFFFF19
:1007F000FFFFFFFFFFFFFFFFFFFFFFFFFFFFFFFF09
:10080000021B4F021032FFFFFFFFFFFFFFFFFFFF42
:10081000FFFFFFFFFFFFFFFFFFFFFFFFFFFFFFFFE8
:10082000FFFFFFFFFFFFFFFFFFFFFF0218DBFFFFE0
:10083000FFFFFF02177EFFFFFFFFFFFFFFFFFFFF2E
:10084000FFFFFFFFFFFFFFFFFFFFFFFFFFFFFFFFB8
:10085000FFFFFF020F67FFFFFFFFFFFFFFFFFFFF2D
:10086000FFFFFFFFFFFFFFFFFFFFFFFFFFFFFFFF98
:10087000FFFFFFFFFFFFFFFFFFFFFFFFFFFFFFFF88
:10088000FFFFFF020FC6FFFF13201320FFFFFFFF34
:1008900078560010010000000100F0FF070008007A
:1008A00000FFFF00000704000000030001FF161016
:1008B000270000FFFFFFFF0020FD00FF8080800277
:1008C00006FFFFFF1E016C250000A22500000000AE
:1008D0000000A825000000000000000000008000CB
:1008E0000164640101F90000010401010144044FA5
:1008F0008A0000000204010C004401A78B000000E4
:100900000304010C004401A58B000000FFFFFFFF62
:10091000FFFFFFFFFFFFFFFFFFFFFF020119000EB8
:1009200004010C000000000001AD8B0E00BA185B42
:100930001D00010400007D19000000E8030000FF15
:10094000FFDA1988130000E803000064006400B8AF
:1009500001A0BB0D00A0BB0D0002020207040101B3
:100960000A1E02051E020A0A010101080908010304
:10097000B80B02803E0102FEFFE8030A050001FFFA
:10098000FF010A011401E001050301010F10FEFF40
:10099000030003000300030003000300030003003F
:1009A000030005000A00140028004F009E0000000C
:1009B0008B3B00000000233B00000000FF00000014
:1009C000FF00121B7D6046121B9B603DE9687008AA
:1009D000F618F618F618F622748067F71209F60969
:1009E0000909748067F722121B9B601D121B7D7022
:1009F00005191919801A121A28701F1219D8C370F4
:100A000003E667331919194007181818220808084F
:100A100074FFF618F618F618F6221219D860171295
:100A20001C09702192F0121C127019501720F0143A
:100A3000080808090909E7F61819E7F61819E7F68A
:100A40001819E7F622121C1260E6E869701F080800
:100A5000E62480F608E436F618547FB47F0CE6549A
:100A6000806007F6E418F618F622181822E9C6CCBA
:100A700008C6CD08C6CE08C6CFC0E0E8C0E0EAC0D0
:100A8000E0EBC0E009E9F809E7FA09E7FBE6F91845
:100A9000E6F8C3EC98ED99EE9AEBC2E7F5F0EFC2F9
:100AA000E795F0500E600CEBCFFBEACEFAE9CDF9FA
:100AB000E8CCF8EAA2E7D2E7FAEB33FB13F5F0EE65
:100AC000A2E7D2E7FEEF33FFC5F013A2E730E6015D
:100AD000B313C5F0C3C0E0C0F07F00C39BFB605EF2
:100AE0009418600F401D14601AD0E023F9D0E0F88C
:100AF000020BC88AF0E9486003D2F0E4AFF0FAF9DB
:100B0000F8803BEB30E40D89F0EA6003D2F0E4AF0B
:100B1000F0F9CAF8EB30E30D88F0EF6002D2F0AFE5
:100B2000F0E4CAC9F8EB54076014FBC3EA13FAE90E
:100B300013F9E813F8EF135002D2E0FFDBEDD0E039
:100B4000C0E030E739C3E49FFFF5F0EC98FC42F0D9
:100B5000ED99FD42F0EE9AFE42F0D0E0F9D0E0F8D7
:100B6000E5F0607AE923F9EE20E742D8028067C316
:100B7000EF33FFEC33FCED33FDEE33FE80EAEC287F
:100B8000FCED39FDEE3AFED0E023F9D0E0F840026A
:100B9000801BC3EE13FEED13FDEC13FCEF135002AC
:100BA000D2E0FF08B800067F7F74FF802EEF33503D
:100BB000178CF020F00260100CBC000C0DBD00087A
:100BC0000EBE000408E860DFE933E813FFEE2313EC
:100BD000FE4F4D4C8008E95480FFE4FEFDFCEE33EF
:100BE000EF33F47004FCFD7E80D0E0FBD0E0FAD05F
:100BF000E0F8D0E0CFC618CEC618CDC618CCC6F9DE
:100C000022121B9B700418181822121B7D700D7481
:100C1000FFF61819F61819F61819F622E754806627
:100C2000F6121C12700F121C0970F014F608F60868
:100C3000F608F680D1121C09700CF608F6087680CA
:100C400008E6447F80EC1219DB700C121A2B60BF8F
:100C5000E65480F6E480BB121A2B7005191919802E
:100C6000A5E869700C763F18768018F618F6E8F952
:100C700022E6CDC0E018ECC0E0E633CD33CDD3138F
:100C8000F6E719FCE7191933CC33C3947F400ECD36
:100C90009D502408E65480F6E418F6800FF4043DD5
:100CA00014501408E6447FF6187680E418F618F617
:100CB000D0E0FCD0E0FD22CCD313CCFD18E4C6CBB1
:100CC000C0E018E4C6CAC0E00808ED08C633E61361
:100CD000F618E433C675F003C3CA97CA09CB97CB9D
:100CE000199C40047D08802EBD0003020DAA16B693
:100CF000FF050606081618C3CA33CACB33CB33CA5E
:100D000027CA09CB37CB193CC37D08803E187D0824
:100D100020E75CC633C6CA33CACB33CB33DDF1D54B
:100D2000F0EB30E77BCA97CA09CB974ACB199C40B6
:100D30006F4B7025E620E0218066187D08C3CA97B6
:100D4000CA09CB97CB199CD3C633C6CA33CACB3397
:100D5000CB3350C9DDE7D5F0E1D3E4C636C608C6CB
:100D600036C608C636C608C636C61818188031C337
:100D7000CA97CA09CB97CB199CB34097C633C6CA4A
:100D800033CACB33CB33DD34D5F02EC6A2E0C64018
:100D9000C8CA27CA09CB37194A70BECB3CB480B940
:100DA0000808E63308E633601F181818D0E0FAD0B8
:100DB000E0FBD0E0FCD0E0FD22187D08CA27CA097C
:100DC000CB37CB193CD3808013F618E4B67F11F6ED
:100DD00018B6FF0EF618C60470D20808768080CACE
:100DE000F618F618F680C500121B9B604F121B7D8B
:100DF0006012E7548066F6121A287011121C0970EE
:100E00003B090909F4F618F618F618F6221219D853
:100E10007015121C1208080860EAE6447FF618767E
:100E20008018E4F618F622121C126016121C0970C3
:100E300012E4F608F608F608E65480F609090918DF
:100E4000181822EAC0E0EBC0E0ECC0E0EDC0E0E63C
:100E500087F0A4FBACF008E687F0A42CFCE435F0A6
:100E6000FA1809E687F0A42C4B60027401CA35F029
:100E7000FCE433FB09E687F0D2F7A42CCB35F0FC79
:100E80001908E687F0A42BCC35F0FBE433FD0819F4
:100E9000E687F0D2E7A42C4ACB35F0CD3400FC092C
:100EA000E687F0D2E7A42DCC35F0FDE433FA09183B
:100EB000E687F0D2F7A42CCD35F0CA3400FC08E662
:100EC00087F0D2E7D2F7A42ACC35F07A7E20E70B60
:100ED0000ACB33CBCD33CDCC33CC33CB33501470A2
:100EE00004ED30E00ED2F1E4CD3DCDCC3CCC3B5016
:100EF00005DA05C2F1EB547FC63308E63392F0FB06
:100F0000E73309E733C39A502D2B70190C0D4C4D64
:100F100070151806E608C333700D20F10AA2F0130D
:100F2000F6E418800B4024E4F630F002768018F6E0
:100F300018F618F68024D33B14501074FFA2F01357
:100F4000F6187680E418F618F6800FA2F013F6185B
:100F5000E63303F618ECF618EDF6D0E0FDD0E0FC31
:100F6000D0E0FBD0E0FA22C0E074F1121365A2AF2A
:100F7000E433F509D2AF85A708AFA1EF5508FE7499
:100F8000105E6006121F4875A1EF74085E600812BB
:100F90001F4E75A1F78024EFA2E092F0E508A2E0D1
:100FA00082F05017906198E0F890051FE0C398A276
:100FB000D265D0335002E8F075A1FEE509A2E092B7
:100FC000AF7F020213C4C0E074F2121365A2AFE453
:100FD00033FED2AF9061A4E0F8759B00E5915854C0
:100FE0000860087591F7121F9C8023E591585410F2
:100FF00060087591EF121FA28014E591A2E092F0B3
:10100000E8A2E082F05007E0C2E0F01220F8906120
:10101000A3E0F8E5E9585404600E1220CE75E9FB10
:10102000906193E0A2E640F2EEA2E092AF7F01026F
:1010300013C4C0E074F2121365A2AFE433FED2AF62
:101040009061A5E0F8E5BF585404600675BFFB1237
:10105000211080D41210A930F0431210EE803E8A85
:10106000088B098C0A8D0B78081210A920F0143017
:10107000E72B74FFFCFBFA747F8022E4FCFBFA741C
:1010800080801AB48008BC00F2BB00EF800F50EBE8
:10109000F9E4C39AFAE49BFBE49CFCE499C6CC18FF
:1010A000C6CB18C6CA18C6F922E4C9C608CAC608FB
:1010B000CBC6D3330308CCC63392F0C3947F402E03
:1010C00094184019C9B90704CACBCC225025C309CA
:1010D000CA33CACB33CBCC33CC33D9F422F4600D32
:1010E000C9CCC313CB13CBCA13CAD9F6CC22E4FCA8
:1010F000FBFA2214FCFBFA22C3E498F8E499F912F3
:1011000011398026C3E49AFAE49BFBE920E7E9124F
:101110001139E498F8E499F922C3E498F8E499F9CC
:10112000121139E498F8E499F9C3E49AFAE49BFBC4
:1011300022EB20E7CFE920E7E0B90010BB0008E888
:101140008AF084F8AAF022E4FBC8FA22EB70227B32
:1011500010C833C8C933C9335007C39AC3DBF28000
:10116000069A50012ADBEAC833F4C8C933F4C9FA35
:101170002275F008E4C833C8C933C933C99AC99B7A
:101180005004C92AC93BD5F0ECFBC833F4C8E4C904
:10119000FA22080808EAC0E0EBC0E086F0E7A4FA0B
:1011A000180986F0E7A42AFA180986F0E7A42AFAB3
:1011B000180986F0E7A42AFA1986F0E7A4FBE5F0FF
:1011C0002AFA190886F0E7A42BFBE5F03AFA190889
:1011D00086F0E7A42BFBE5F03AFA18180986F0E749
:1011E000A4C5F02BFBE43AFA1908E7C5F0C6A4261B
:1011F000F6E5F03BFBE43AFA1886F0E7A4F6E5F0F2
:101200000826F6E43B08F6E43A08F6D0E0FBD0E026
:10121000FA22080808E630E7111219EC12122A081F
:101220000808C64480C618181822181818E9799EAC
:10123000C608CAC608CBC608CCC6C370207996CAF1
:10124000CBCC7019798ECBCC70137986CC700EF91B
:10125000802ACA33CACB33CBCC33CC331930E7F234
:10126000CCCBCA3350147004EA30E00DE4CA3ACA59
:10127000CB3BCBCC3CCC500209C3E913C6CC1823E2
:1012800013C6CB18C6CA18C6F922E4CFC0E0E4CE14
:10129000C0E0E4CDC0E0E4CCC0E075F020E626F686
:1012A00008E633F608E633F608E633F6181818ECC5
:1012B00033FCED33FDEE33FEEF33FFC3EC9709ED66
:1012C0009709EE9709EF97191919400FFFEC97FC52
:1012D00009ED97FD09EE97FE191906D5F0BFECF759
:1012E00009EDF709EEF709EFF7191919D0E0FCD06D
:1012F000E0FDD0E0FED0E0FF222521C582C0E0E580
:101300002234FFC583C0E0E521C3958224F810AFE5
:10131000088583228582218008858322858221D2C7
:10132000AFCEF0A3E520F0A37808E608F0A3DEFA3C
:10133000EFF0A3E58124FAF8E608F0A3E608F0A3AD
:10134000E608F0A30808E608F0A3E608F0A3158174
:101350001581D0E0FED0E0F8158115811581E8C037
:10136000E0EEC0E022C0D02521C582C0E0E52234F5
:10137000FFC583C0E0E521C3958224F310AF088543
:1013800083228582218008858322858221D2AFC86D
:10139000F0A3E9F0A3EAF0A3EBF0A37908E709F0E2
:1013A000A3D8FAECF0A3EDF0A3EEF0A3EFF0A3D0F6
:1013B000E0F0A3D0E0F0A3D0E0F0A3E520F0A3E5B7
:1013C000F0F0A322852283852182E0C0E0A3E0F92A
:1013D000A3E0FAA3E0FBA37808E0F608A3DFFAE0B5
:1013E000FCA3E0FDA3E0FEA3E0FFA3E0C0E0A3E0D8
:1013F000C0E0A3E0F5D0A3E0F520A3E0A3F5F01052
:10140000AF088583228582218008858322858221F9
:10141000D2AFD082D083D0E0F8D0E0321219EF18EA
:10142000181812128A121B0E19191922121B0E19E2
:101430001919080808E618181820E7E012128A128D
:1014400019EF18181822090909E719191920E7DCFA
:10145000080808E618181820E70302128A1219EF84
:1014600018181812128A1219EF181818121B0E19D0
:10147000191922121BF4B900030214B2E4900401FA
:1014800078D479198002F0A3D8FCD9FA7AD47B1CDD
:10149000900898782B79028015E493A3AD82AE83EF
:1014A0008A828B83F0A3AA82AB838D828E83D8E954
:1014B000D9E77582D07583E9740612186C75829E1F
:1014C000758338740012186C75F0108E238F248584
:1014D0008228858327852182852283E0CEA3E0CFE1
:1014E000852882852783EBC9EAC8EDCBECCAC3E81F
:1014F00033C8E933C9EA33CAEB33CBC3EA9EF526D6
:10150000EB9FF525B35004AB25AA26EC33CCED3385
:10151000CDD5F0DAAE23AF2422121B9B601C121B28
:101520007D6017121C127007121C097001D322C0B3
:10153000D0121C097006D0D0B322C32233D0D050B1
:101540001430E0F6C3E7960809E7960809E796081D
:1015500009E796B32220E0D5E6970809E69708093F
:10156000E6970809E697B322121B9B601B121B7DAE
:101570006016121C127007121C09600CB322C0D036
:10158000121C097005D0D022C32233D0D0501330A2
:10159000E0EBC3E7960809E7960809E7960809E72C
:1015A000962220E0E4E6970809E6970809E69708FE
:1015B00009E69722D083D082ECC0E0EDC0E0E4934E
:1015C000A3FCE493A3FDED4C600D12168CEC24FFFC
:1015D000FCED34FFFD80EFE493A3FCE493A3FDED69
:1015E0004C600D121729EC24FFFCED34FFFD80EF59
:1015F000D0E0FDD0E0FCE493A3C0E0E493C0E0229F
:10160000D083D082E9C0E0E493A3C386F0C5F0950F
:10161000F0F908E493A386F0C5F095F0700BE4931D
:10162000A3C3994005E9048002A3E475F002A42550
:1016300082F582E5F03583F583D0E0F9E493A3C029
:10164000E0E493C0E022852283852182E0A3FEE0CE
:10165000A3F5207808E0A3F608DFFAE0A3FFE0A3F3
:10166000C0E0E0A3C0E0E0A3C0E0E0A3C0E0E0A3EE
:10167000C0E010AF08858221858322800885822101
:10168000858322D2AFD083D082021872C0E0C3E437
:101690009396087401939618400FE49366700808B7
:1016A000740193661870007019A3A3C3E49396089D
:1016B0007401939618A3A3400DD0E0D0E0D0E002CF
:1016C00015F0A3A3A3A3A3A3D0E022740480047401
:1016D000028000CCC0E0EDC0E0E521C39CCCAD228F
:1016E00050011D10AF068C218D2280068C218D2289
:1016F000D2AF1217EED0E0FDD0E0FC2274028000E1
:10170000CCC0E0EDC0E0E521C39CCCAD2250011D72
:1017100010AF068C218D2280068C218D22D2AF1233
:1017200017CCD0E0FDD0E0FC22C0E0C0F088F0E4AF
:10173000936670080874019366187000A8F0A3A35C
:10174000700BD0F0D0E0D0E0D0E00215F0A3A3D031
:10175000F0D0E022D083D082CCC0E0E493A3600636
:1017600012182E1470FAE493A3600612195814701C
:10177000FAD0E0FCE493A3C0E0E493C0E022C0E030
:1017800074F2121365A2AFE433FED2AFE58BA2E090
:1017900050057904121E5E758B00C2E8EEA2E0923D
:1017A000AF7F010213C4C008C3E096F50808A3E0A8
:1017B00096420808A3E096420808A3E0964208A2D1
:1017C000D265D033E5087001D3D00822CAC0E0E466
:1017D00093A3C582CCC582C583CDC583F0A3C58242
:1017E000CCC582C583CDC583DAE5D0E0CA22CAC0A4
:1017F000E0E0A3C582CCC582C583CDC583F0A3C577
:1018000082CCC582C583CDC583DAE6D0E0CA22701A
:1018100009080808226016181818C6C333C608C677
:1018200033C608C633C608C633C6D5E0EA22C0E0D0
:10183000E493A3D39C5010E493A3C39C400AD0E04C
:10184000D0E0D0E0021771A3A3A3D0E022C008C368
:10185000E096F50808A3E096420808A3E09642083F
:1018600008A3E09645087001D3D00822C09FF59FD9
:10187000E473D09F22D083D082C09FE493C0E074F1
:101880000193C0E0740293F59F222521F58210AFE9
:1018900008F521400C15228008F52140021522D2BE
:1018A000AF8522832200C0D0252110AF08F521503A
:1018B0000C05228008F52150020522D2AFD0D0229B
:1018C0007404800A74038006740280027401C0E00C
:1018D000F40412188AD0E0121BB722C0E0C0D0E88E
:1018E000C0E0A8A8D2AFC2C7E8A2E792AFD0E0F8A4
:1018F000D0D0D0E032BB0102E722C082C08389820F
:101900008A83BB0003E08002E493D083D08222600C
:1019100016080808C6C313C618C613C618C613C6C9
:1019200018C613C6D5E0EA222521F8E43522F922AB
:101930002521FAE43522FB222521FCE43522FD2273
:10194000C3E0C696F608A3E0C696F608A3E0C696DE
:10195000F608A3E0C696F622C0E0E493A36C7009F3
:10196000D0E0D0E0D0E0021771A3A3D0E02225217F
:1019700010AF08F521400C15228008F52140021512
:1019800022D2AF22E76670100809E766700A0809DC
:10199000E76670040809E76622E066701008A3E0B5
:1019A00066700A08A3E066700408A3E06622C3E735
:1019B000960809E7960809E7960809E796A2D2650E
:1019C000D03322C3E09608A3E09608A3E09608A3CC
:1019D000E096A2D265D03322191919E70947097098
:1019E00009E727097005E733F4220922181818E4DB
:1019F000C396F608E496F608E496F608E496F6220E
:101A0000C3E096F008A3E096F008A3E096F008A3E0
:101A1000E096F022C3E697F60809E697F60809E68D
:101A200097F60809E697F622181818E6084608708F
:101A300009E626087005E633F4220822C3E49396EB
:101A4000087401939608740293960874039396227F
:101A5000E026F608A3E036F608A3E036F608A3E091
:101A600036F622E627F60809E637F60809E637F6DD
:101A70000809E637F622700422600D18C6C333C683
:101A800008C633C6D5E0F41822E657F60809E6572B
:101A9000F60809E657F60809E657F622E056F60872
:101AA000A3E056F608A3E056F608A3E056F622E0B7
:101AB00026F008A3E036F008A3E036F008A3E036ED
:101AC000F022E056F008A3E056F008A3E056F00834
:101AD000A3E056F022E493F608740193F60874022A
:101AE00093F608740393F622E046F008A3E046F06C
:101AF00008A3E046F008A3E046F022E647F608090E
:101B0000E647F60809E647F60809E647F622E4C381
:101B100097F709E497F709E497F709E497F722C6DE
:101B2000F4C608C6F4C608C6F4C608C6F4C622C37E
:101B3000E09608A3E09608A3E09608A3E09622C3E7
:101B4000E7960809E7960809E7960809E7962275D7
:101B5000D00075813F752101752204000214736065
:101B60000C08C6C313C618C613C6D5E0F422E6F0A7
:101B700008A3E6F008A3E6F008A3E6F022E7094789
:101B800009C3134709336002E733F422E0F608A3E0
:101B9000E0F608A3E0F608A3E0F622E6084608C34C
:101BA000134608336002E633F422800100E9F8743A
:101BB000FF28F90470F622CAC0E0E6F0A308DAFABA
:101BC000D0E0FA22E0F8A3E0F9A3E0FAA3E0FB22D8
:101BD000E8F0A3E9F0A3EAF0A3EBF022EAF0A3EB2C
:101BE000F0A3ECF0A3EDF022E0FAA3E0FBA3E0FC0D
:101BF000A3E0FD22E5C754F84401F5C77901222589
:101C000021F582E43522F58322E727194719471980
:101C10004722E62618461846184622C2AF75D69FB8
:101C20000200002212187551E003121875EBE00350
:101C30001218755BE1031218758AE103121875908A
:101C4000E203121875BAE2031218750EE3031218B4
:101C500075E2E30312187510E603121875BEE60369
:101C60001218752BE903121875B0E903121875B331
:101C7000EC03121875E7EE0312187523EF03121820
:101C8000757CF0031218758FF003121875CCF003F1
:101C900012187595F2031218750080061218757CDB
:101CA0008006121875AF8006121875DD80061218AE
:101CB000751B8106121875588306121875778306EE
:101CC000121875BC83061218755284061218759E78
:101CD00084061218753285061218750B86061218BE
:101CE00075678606121875C5860612187538870638
:101CF0001218757C8706121875D48706121875F6A7
:101D00008706121875868806121875178906121824
:101D1000756389061218758F8906121875D08906A1
:101D2000121875668B06121875528C061218752DCE
:101D30008D06121875527D001218757E7D001218DE
:101D400075997D00121875BE7D001218755E7E00B3
:101D50001218754B7F00121875757F001218759C4C
:101D6000FB0212187538FC02121875C1FC02121819
:101D70007562FD02121875C7FD02121875EAFD02A0
:101D80001218752EFE021218754BFE02121875906D
:101D9000FE02121875EEFE0212187527FF021218C5
:101DA000757AFF02121875AFFF02121875B2E706B6
:101DB0001218756EE80612187553E9061218754860
:101DC000F80612187559F80612187573F8061218E5
:101DD00075F47F00121875ECFF0312187561FF038C
:101DE00012187571FF0312187583FF03121875E935
:101DF000FF0312187535F206121875B9F20612189B
:101E00007521F3061218757CDD0612187590DD0633
:101E100012187506DE0612187555DE061218758A38
:101E2000DE06121875ADDE06121875D0DE06121821
:101E300075E9DE0612187522DF0612187553DF06E3
:101E40001218759ADF06121875B4DF061218753A63
:101E5000F40612187587F40612187590F406121815
:101E600075B7F4061218750CAC061218752CAE0670
:101E700012187567AE06121875D9AE06121875BA23
:101E8000AF06121875C8AF061218756FB006121893
:101E90007566B106121875D5B10612187582F80666
:101EA000121875BCC006121875D0C006121875FA43
:101EB000C00612187567C106121875D4C10612182B
:101EC0007511C20612187527C20612187576C20659
:101ED000121875BAC206121875CEC206121875EE1F
:101EE000C2061218751CB70612187548B7061218E4
:101EF00075B2B906121875F2B9061218752EBA061F
:101F000012187542BA061218755BBA061218754D8A
:101F1000BB0612187500BC0612187514BC06121800
:101F2000758DEE06121875B1EE06121875CAEE061A
:101F300012187508EF0612187538EF061218756535
:101F4000EF06121875CBEF06121875CEEF061218B1
:101F500075D8EF06121875E5EF0612187578E006C9
:101F600012187598E006121875D7E006121875F564
:101F7000E00612187510E10612187576E1061218BF
:101F80007582E106121875DFE106121875EEE1069A
:101F900012187512E206121875D3E206121875E0CF
:101FA000E206121875F1E2061218756DF60612189F
:101FB00075B5F606121875E1F6061218756ABC06B4
:101FC000121875BEBD06121875CCBD06121875DF45
:101FD000BD06121875F4BD0612187509BE06121852
:101FE000751CBE0612187598BE06121875FDBE0641
:101FF00012187593BF061218756CC0061218757CFE
:10200000C0061218758BC00612187567FF051218E6
:10201000758BFF05121875B3FF05121875DBFF05E8
:102020001218751FE30612187546E3061218756438
:10203000E306121875D3E30612187575DA0612183E
:10204000758EDA061218759ADA06121875AEDA0667
:10205000121875CCDA06121875D6DA06121875E061
:10206000DA06121875F3DA061218757DDB061218F7
:1020700075F2DB0612187526DC0612187574DC067C
:10208000121875C1DC06121875DCDC06121875E62C
:10209000DC061218750CDD0612187571DD061218B3
:1020A00075BDF506121875DFF506121875E6FF0204
:1020B000121875F398061218751F99061218753CB8
:1020C00099061218754F99061218756A9906121812
:1020D00075C49906121875F29906121875069E06AF
:1020E000121875649F06121875969F06121875F9D6
:1020F0009F061218757EA106121875A6A106121861
:1021000075BBA106121875CBA1061218750BA20695
:102110001218754DA2061218755DA206121875C523
:10212000FE04121875DFFE0412187507FF0412185A
:102130007520FF0412187544FF0412187562FF041D
:1021400012187579FF04121875A7FF04121875C2CA
:10215000FF0412187504F8061218758BD0061218B1
:10216000759BD006121875A0D106121875D2D1062B
:1021700012187502D20612187525D2061218753C6F
:10218000D20612187576D206121875DBD20612180E
:10219000751DD30612187564D30612187591D306EF
:1021A000121875BCD30612187529ED061218754958
:1021B000ED061218755DEE0612187560EE0612181F
:1021C0007564D70612187597D706121875B5D70615
:1021D0001218756FD80612187522D9061218754292
:1021E000D9061218758AD9061218759AD9061218C6
:1021F00075E0D90612187538DA0612187555DA0620
:102200001218752FF10612187565F1061218757DF2
:10221000F106121875BFF106121875CFF1061218E3
:102220007513F2061218751DF2061218756EF80570
:10223000121875B1F80512187516F90512187535CA
:10224000F905121875D7F905121875E0F905121875
:102250007531FA051218755AFA0512187567FA05DC
:10226000121875D9FA0512187567FB05121875ACA6
:10227000FB05121875E5FB051218754AFC051218C6
:102280007573FC05121875EAFC0512187539FD0501
:1022900012187576FD05121875ABFD05121875BD7F
:1022A000FD05121875CFFD05121875EEFD05121803
:1022B00075F7FD05121875B3FE05121875F6FE05C3
:1022C00012187534FF051218755AF706121875EFB3
:1022D000EF0612187574E506121875AAE5061218AD
:1022E00075F2E5061218754BE706121875AAEA048E
:1022F000121875D0EB041218750CEC04121875CA7C
:10230000ED04121875F8ED0412187562F004121835
:1023100075A2F00412187544F204121875DAF2046A
:1023200012187534F304121875C4F30412187508E2
:10233000F4041218754AF404121875AFF504121853
:10234000752FF70412187570F9041218759EF904A8
:10235000121875CAF904121875D3F90412187530D9
:10236000FA04121875C9FA04121875E0FD0412185F
:102370007566FE04121875E4F606121875FAF6066C
:1023800012187504F70612187504C5061218751A86
:10239000C506121875BEC506121875FDC5061218B9
:1023A000751AC6061218754BC60612187598C60619
:1023B000121875CCC60612187507C706121875FCD8
:1023C000C806121875EECC061218752BCD06121819
:1023D0007515CE0612187570CF06121875AACF069D
:1023E000121875BEEB06121875F6EB06121875FD7D
:1023F000EB0612187556EC0612187579EC061218D1
:10240000753AF30612187599F306121875D7F30684
:1024100012187518F406121875FFF406121875A52F
:10242000BA04121875B1BA0412187513BB04121845
:10243000751DBB0412187525BB04121875B4BB04B6
:10244000121875F0BB04121875E2BC041218753F1F
:10245000BD04121875CDBD041218751EBE041218E5
:10246000759EBE0412187564C0041218755EC2040D
:1024700012187560C30412187592C404121875E816
:10248000C6041218752AC804121875D0C804121888
:10249000758ECD041218758BCE0412187521CF04D9
:1024A00012187551CF04121875EECF041218750B5F
:1024B000D0041218752BD00412187599D004121874
:1024C00075B6D004121875E4D0041218757ED204C3
:1024D0001218759FD20412187545D3041218758D01
:1024E000D304121875EBD30412187589D40412188A
:1024F00075EED40412187557D50412187595D504C5
:1025000012187547D604121875B2D604121875EE53
:10251000D6041218755FD704121875AAD8041218B9
:10252000753ADA04121875D3DA0412187524DD042A
:1025300012187589DD04121875B7DD04121875FDBF
:10254000E204121875C1E504121875C1E6041218E8
:1025500075274000121875AE43001218752244000A
:10256000121875DF45001218750B490012187568AE
:1025700049001218756B49001218758B4900121822
:1025800075E44900121875134A00121875B54B000E
:10259000121875AB4C00121875BD4C001218756BF3
:1025A0004D001218751E5000121875415000121877
:1025B000758E500012187518510012187567510069
:1025C000121875EF5100121875F45F001218758E0D
:1025D0006E001218759E7C00121875BC7C001218D3
:1025E0007504B20612187591B206121875FFB2067C
:1025F00012187520B306121875F4B3061218756E0A
:10260000B50612187597CE05121875A2CE051218C8
:102610007517D0051218754CD305121875ADD30572
:102620001218759DD40512187525D6051218750156
:10263000D7051218756AD70512187532D805121801
:1026400075DBDA051218752BDC05121875E5DD054A
:10265000121875D5E00512187596E20512187593D3
:10266000E30512187503E4051218755E9C0512182F
:10267000758D9C05121875119D05121875749E05AF
:102680001218755E9F051218751AA1051218753F6C
:10269000A10512187591A10512187523A20512182B
:1026A000756FA20512187582A205121875DFA205B2
:1026B000121875ACA3051218751EA40512187555CD
:1026C000A4051218759EA40512187546A6051218C1
:1026D0007525A70512187573A80512187556A90552
:1026E000121875E2A9051218751BAA051218753A79
:1026F000AA0512187585AA05121875A5AA0512183B
:102700007562AB0512187585AC05121875E0AC053D
:1027100012187526AD051218752EAE05121875C95A
:10272000B005121875EFB0051218756AB1051218C8
:10273000758FB10512187503B205121875E1B2054F
:102740001218751FB305121875A9B305121875C2B2
:10275000B405121875C5B405121875CFB405121852
:1027600075D9B405121875F5B40512187567B50555
:10277000121875A0B505121875CCB505121875F3A9
:10278000B50512187517B60512187552B605121848
:1027900075C5B605121875F9B60512187503B70593
:1027A0001218753FB70512187574B705121875938E
:1027B000B705121875BEF706121875D6F706121867
:1027C00075F77F00121875008005121875238005B3
:1027D000121875818105121875CA8105121875368F
:1027E00082051218759482051218759782051218C1
:1027F00075E882051218755D8305121875ED83055D
:10280000121875F08305121875718405121875B2C7
:102810008405121875D78805121875818A05121853
:1028200075D58A05121875648E051218759C8F056A
:10283000121875709005121875DA90051218750443
:102840009105121875BD9205121875A094051218FD
:10285000754F9505121875EC9505121875D79605E4
:102860001218757C9805121875CE990512187528DE
:102870009B05121875969B05121875D8E405121859
:102880007582E505121875EDE50512187508E6055F
:1028900012187589E605121875D1E605121875FD2E
:1028A000E70512187544E805121875A3E805121813
:1028B00075B5E905121875DEEC051218750EEE05F2
:1028C00012187596EE051218759FF00512187551BD
:1028D000F10512187523F205121875DEF3051218AA
:1028E000757CF50512187509F6051218752FF70590
:1028F00012187504D90212187567D902121875AF2B
:10290000D902121875F3D9021218754EDA0212188C
:1029100075ABDA02121875E6DA0212187568DB0276
:10292000121875C2DB0212187540DD02121875B854
:10293000DD02121875D5DE02121875FDDE021218BE
:102940007550E00212187561E00212187579E00204
:1029500012187582E1021218755FE2021218755C96
:10296000E30212187580E30212187597E302121839
:1029700075C6AB06121875DAE302121875F9E30290
:10298000121875D1E4021218752BE502121875C2DF
:10299000E7021218751BE8021218753AE8021218BD
:1029A000752AE90212187560E90212187593EA0295
:1029B00012187512EB021218754EEB021218758878
:1029C000EB02121875F7EB02121875ACEC02121834
:1029D0007584EE0212187591EF0212187509F10252
:1029E000121875FFF20212187575F5021218754F5C
:1029F000F70212187510F80212187588F8021218EA
:102A0000759FF80212187596F9021218758AFA0263
:102A1000121875F9FA021218750DE003121875C430
:102A2000D50612187583D60612187517DE0312180C
:102A30007509C90612187527C9061218756BC906DB
:102A400012187591C906121875B8C906121875D0F2
:102A5000C906121875E8C9061218758ACA0612182E
:102A600075CCCA06121875EFCB06121875F8CB068E
:102A700012187501CC061218750ACC0612187514B6
:102A8000CC0612187535CC061218751CFB011218ED
:102A9000755AFF0112187568FF011218756DFF0154
:102AA0001218754BEA06121875D4FF01121875003A
:102AB00080021218753280021218759E8002121858
:102AC00075398102121875D881021218751D82029B
:102AD0001218753F82021218755882021218757EFC
:102AE0008202121875A08202121875DE8202121874
:102AF00075228302121875448302121875A6830288
:102B00001218756D840212187524850212187596B4
:102B10008502121875688602121875B2860212189C
:102B2000750587021218756B8702121875A5870242
:102B3000121875F787021218751388021218753E5D
:102B40008802121875458A02121875998B0212189C
:102B500075BB8B02121875EF8B02121875108C0260
:102B60001218751F8C021218752A8C02121875DA49
:102B70008C02121875438D02121875F08D0212180E
:102B800075288E02121875EE8E02121875FB8F02D0
:102B9000121875459002121875D4900212187538E3
:102BA0009102121875739102121875DF93021218B0
:102BB000753395021218756C9802121875399902BE
:102BC000121875C79902121875F0990212187562D9
:102BD0009A02121875F69A02121875549B0212186E
:102BE00075469C02121875689C02121875C49D02E5
:102BF000121875DD9D02121875F09D021218755F8E
:102C00009E021218756B9F02121875789F02121897
:102C100075819F0212187559A1021218757FA202C0
:102C20001218758FA20212187591A3021218750856
:102C3000A40212187537A4021218754CA5021218B6
:102C40007518A702121875F0AA02121875FAAA02CE
:102C50001218750EAB0212187518AB0212187522F5
:102C6000AB021218752CAB0212187545AB02121884
:102C7000754FAB02121875C3AB02121875CEAB02BA
:102C8000121875F3AB02121875FEAB021218754CD0
:102C9000AC0212187556AC0212187561AC0212180B
:102CA0007585AC02121875A9AC0212187505AD0233
:102CB0001218754BAD0212187568AD02121875E541
:102CC000AD021218751CAE021218755BAE02121816
:102CD00075A8AE021218752AAF02121875C3AF029A
:102CE00012187593B102121875F1B1021218750D10
:102CF000B30212187533B30212187572B4021218A7
:102D00007598B702121875D9B902121875B5BB02B9
:102D10001218754BBC0212187572BE021218751E7D
:102D2000BF0212187553BF02121875B8BF021218ED
:102D300075C2BF02121875ECC10212187513C302D6
:102D400012187553C302121875F9C3021218758A46
:102D5000C50212187513C70212187533C70212186C
:102D6000758CC7021218758EC802121875D8C80261
:102D700012187528C90212187512CA02121875871E
:102D8000CA02121875A1CB021218751CCC021218B7
:102D90007521CD02121875CCCF02121875EBCF0237
:102DA0001218754CD1021218750ED30212187562E2
:102DB000D3021218751AD402121875C9D402121847
:102DC000751FD502121875D5D5021218756AD6026C
:102DD000121875D6D60212187510D702121875413E
:102DE000D7021218759DD8021218750080031218A8
:102DF00075328003121875698003121875528203A8
:102E00001218753583031218758D8303121875C84F
:102E100084031218751485031218753C8803121860
:102E2000759E8B03121875EB8C03121875818D0338
:102E30001218758D8D03121875BF8D031218754108
:102E40008F03121875DC9003121875849103121801
:102E500075C791031218752D92031218754A9203C3
:102E60001218757A9203121875AF92031218757FB3
:102E70009303121875289403121875AC9603121850
:102E800075CC9703121875B5980312187537990306
:102E9000121875569D03121875939D03121875EB41
:102EA0009D031218751E9E031218759F9E0312181B
:102EB00075EC9E03121875779F03121875C99F034E
:102EC000121875A0A00312187559A103121875F4F1
:102ED000A1031218750DA5031218752DA60312185B
:102EE00075DAA903121875F8AA03121875FBAA035C
:102EF0001218752AAB0312187530AD031218750934
:102F0000AE031218753EAE0312187546AF031218C1
:102F100075FCAF031218759DB103121875C2B10389
:102F200012187501B20312187573B203121875578F
:102F3000B30312187524B4031218755AB603121885
:102F400075CBB6031218750BB7031218756CB7035F
:102F50001218752FBB031218751EBC0312187505C5
:102F6000BD031218757DBD031218753FBE031218FC
:102F7000753DC00312187555C00312187569C0035A
:102F8000121875A1C003121875CFC0031218755618
:102F9000C20312187561C303121875B3C303121864
:102FA0007514C403121875C6C403121875EDC40352
:102FB000121875D1C50312187582C60312187571DF
:102FC000C803121875A6C8031218750EC903121883
:102FD000753DCA03121875EFCA0312187520CB038A
:102FE00012187538CB03121875C7CB031218757BEE
:102FF000CE0312187553D0031218756FD003121830
:10300000758BD00312187559D1031218753DD5036D
:10301000121875B58B01121875ED8B01121875CB4E
:1030200090011218751191011218755E9201121813
:1030300075C99201121875529401121875629701A0
:103040001218757D98011218758FA2011218752239
:10305000A30112187574A60112187570A701121831
:1030600075CBA70112187515A90112187503AA01CD
:103070001218759FAC0112187513AE0112187596CF
:10308000AE0112187599AE011218750EAF01121823
:103090007518AF0112187525AF0112187550AF01E0
:1030A00012187500B001121875F9B001121875A444
:1030B000B101121875C2B101121875DBB1011218F5
:1030C0007504B20112187526B2011218757BB4018D
:1030D00012187540B50112187585B50112187504DE
:1030E000B601121875B0B601121875E2B6011218C1
:1030F0007536B70112187571B701121875B8B70196
:1031000012187508B8011218750DB80112187561FA
:10311000B8011218758DB80112187576B901121818
:1031200075C7B90112187527BA0112187581BA014D
:103130001218751CBB011218755BBE011218756D53
:10314000BF01121875E7C001121875F7C3011218F4
:103150007595C4011218758BC7011218754AC801FC
:103160001218758EC80112187539CA011218754DDA
:10317000CA0112187557CA0112187561CA011218CE
:10318000756DCA0112187592CA011218756BCC01BF
:10319000121875C0CC01121875CACC01121875D45A
:1031A000CC0112187549CD0112187598CD0112186D
:1031B00075A9CE01121875F6CE0112187503D0014B
:1031C00012187547D001121875EDD001121875E06C
:1031D000D101121875A6D201121875C9D30112189F
:1031E00075E7D401121875CFD501121875E7D5010E
:1031F0001218753ED60112187548D601121875536B
:10320000D60112187571D601121875B9D6011218A7
:10321000751BD70112187542D70112187554D701C2
:10322000121875EFD70112187524D8011218750BF2
:10323000D90112187550D90112187536DA01121811
:10324000755DDA01121875E0DA0112187551DB01AB
:10325000121875DADC0112187506DE01121875C92C
:10326000DE0112187591DF011218751BE0011218AA
:103270007543E101121875E5E10112187560E2016C
:103280001218751CE30112187566E301121875C057
:10329000E30112187598E401121875BBE4011218C5
:1032A000756EE50112187590E501121875F9E501C2
:1032B0001218750FE80112187507E901121875CB7D
:1032C000E901121875FDEB0112187547EC0112188F
:1032D0007597EC01121875FBEC011218755DED0184
:1032E0001218758BED01121875AFED01121875E407
:1032F000ED0112187515EE0112187548EE0112183D
:103300007598EE01121875EBEE0112187510F001A8
:10331000121875B0F1011218750BF20112187534FC
:10332000F201121875C1F2011218752FF30112186B
:10333000753DF30112187561F301121875B6F301AA
:10334000121875D1F30112187583F401121875BBA8
:10335000F401121875FEF40112187561F5011218C6
:103360007563F7011218758DF70112187584F8014D
:103370001218758EF9011218753EFA011218754C63
:10338000F40312187584F403121875A5F4031218C7
:1033900075E7F40312187549F50312187553F50310
:1033A00012187563F5031218759EF5031218757ED1
:1033B000F9031218756BFB0312187551FD031218EF
:1033C00075E8FD031218758AFE03121875968004BD
:1033D000121875418104121875EF8104121875F5E1
:1033E00082041218751583041218753E840412188D
:1033F00075F985041218756C860412187510870407
:103400001218751C8804121875878804121875C361
:103410008804121875068904121875418904121857
:1034200075838904121875188A04121875948A0411
:103430001218755E8B041218753B8C04121875D324
:103440008C04121875ED8C041218751D8D04121859
:10345000754E8D04121875148E04121875248E047E
:10346000121875738E04121875808E0412187589DF
:103470008E04121875078F04121875638F041218C2
:1034800075AE8F04121875C98F04121875F48F0465
:103490001218751190041218751D9004121875B445
:1034A0009104121875CD91041218755292041218D5
:1034B0007565920412187584920412187528930485
:1034C000121875A994041218755C9604121875F2F6
:1034D0009604121875F5960412187565970412185B
:1034E000758397041218751A980412187562980457
:1034F0001218756598041218752B9904121875988E
:103500009904121875BE9904121875499A04121874
:1035100075679A04121875AD9A04121875619B04A8
:10352000121875AB9B04121875DA9B0412187537C4
:103530009C041218756C9C04121875989C0412183F
:1035400075A69C04121875F39C04121875639D04EB
:10355000121875AC9D04121875F89D041218752484
:103560009E041218752F9E041218754D9E04121891
:1035700075389F04121875429F041218757D9F04B8
:103580001218758D9F04121875E19F04121875F5B5
:103590009F0412187524A10412187539A104121879
:1035A00075C7A1041218750CA20412187598A2040C
:1035B000121875A3A204121875E5A3041218750059
:1035C000A4041218754CA404121875BBA404121894
:1035D00075F4A4041218750EA5041218756EA504CE
:1035E0001218750DA60412187558A604121875281D
:1035F000A904121875DAA90412187547AA0412183A
:103600007587AC041218759FAC04121875A2AC042F
:10361000121875AEAC04121875C2AC04121875CA33
:10362000AC04121875FDAC0412187500AE04121823
:10363000758DAE04121875FDAE041218757FAF04B7
:1036400012187540B0041218755FB0041218750096
:10365000B1041218755DB10412187560B104121826
:1036600075D4B10412187523B30412187529B40463
:10367000121875B4B404121875CFB50412187597E2
:10368000B604121875C8B604121875EBB6041218F1
:1036900075F4B60412187523B704121875B3B7047D
:1036A00012187569B804121875DEB80412187585F9
:1036B000B904121875FAB90412187531BA0412183F
:1036C000756FBA0412187592AB061218753BAB06EB
:1036D000121875C4A90612187516A9061218750CC9
:1036E000A90612187502A9061218759BA8061218C9
:1036F0007580A806121875DDA706121875DDA606D6
:10370000121875FBA506121875EBA306121875BCE6
:10371000DF031218750BDF03121875F9A2061218D1
:103720007597A206121875E7DD031218753BDD03C5
:1037300012187583CE0512187579CE051218750EFC
:10374000CE0512187542CC0512187500CC0512185A
:10375000750CCB05121875E0CA0512187597CA05C5
:10376000121875D8C905121875C7C6051218757FC5
:10377000C4051218752FC405121875C9C30512188F
:103780007588C305121875BAC20512187554C2059A
:10379000121875F3C10512187593C1051218753109
:1037A000C005121875C5BF0512187519BF05121886
:1037B0007514BF0512187508BF05121875D3BE051C
:1037C000121875D4DA0312187565BB051218758BBB
:1037D000D703121875DFD6031218754DD6031218C9
:1037E0007507D603121875D2D5031218759FD50325
:1037F00012187562BB0512187515BB0512187503F2
:10380000BB051218758AD503121875F9BA05121876
:1038100075C8BA05121875C3B80512187536B805FB
:1038200012187514D406121875F2B70512187577A8
:10383000DE03121875C6B7051218758D9806121892
:10384000756098061218752D980612187505980659
:10385000121875A6970612187586970612187551D4
:103860009706121875FD9306121875E59106121841
:1038700075CF8F061218754F8F06121875FB8E06BE
:10388000121875AF8E06121875EBD6061218755FF2
:10389000D503121875078E06121875B8E3020000DA
:1038A0000080FBE4738F000100BF1D87000100BD95
:1038B0001D35000400831D25000200871D2600021F
:1038C00000891D270002008B1D28000100951D297D
:1038D000000100961D84000400681A86000100E2C1
:1038E0001C2A000100971D2B000100981D2C0001CF
:1038F000009D1D2D000800761A2E0001009E1D2F30
:103900000001009F1D30000100A01D31000100A139
:103910001D320001007E1A330001007F1A340001BD
:1039200000A21D36000100801A38000100A31D39D5
:103930000001009C1D83000200BB1D630001008B81
:103940001A64000100991D650001009A1D6D0001B7
:10395000008C1A710008006E1A66000100BA1D433F
:10396000000100AB1D44000200AC1D45000100AE8B
:103970001D46000200AF1D47000800831A480001E1
:1039800000B11D4B000100B21D04000100BE1DA1CD
:10399000000100C21D37000100C11D88000100C0E8
:1039A0001D3C000100811A3D000100A41D490002D8
:1039B00000B31D670001008D1A4D000200B51D4EB9
:1039C000000100B71D4F000200B81D3E000100AA13
:1039D0001D51000100A61D52000100A71D5300014A
:1039E00000A91D54000100821A0000000000000020
:1039F000013636010100010201000103010001044A
:103A000001060605020000070100340801000F0945
:103A10000401010D0100FF0E08000017020000194B
:103A20000100FF1A0100011B0100FE1C0100081D1E
:103A30000200001F010001200100012102000023FB
:103A400001000F24020000260100012701000828C0
:103A50000200FF2A0100072B0102402C0100002D6B
:103A60000100012E0100012F0100FF30010B1D316B
:103A70000800003A0100083B01000F3C0100013D35
:103A80000100FF3E04000042040000460400004A1A
:103A90000400004E04000052040000560400005AC6
:103AA000040000000000002001B38B000001002092
:103AB00001B48B000002002001B08B000003002045
:103AC00001AF8B000004004201F3890000050042B1
:103AD00001158A000006004201258A000007003017
:103AE00001B18B0000004042018A8A0000FEFF21E4
:103AF00001AB8B03000000212306190300FEFF2108
:103B000001AB8B08000000200508190800FEFF210A
:103B100001AB8B0600000010051F1D0600FEFF21F3
:103B200001AB8B01037103010301030103010301D5
:103B30000322030203010310030003000300030038
:103B400003000300030003420300032403060300F1
:103B500003000304031203250323032503230304A3
:103B600003040300030003000344030003000323D2
:103B700003000365032100350381030003050300EF
:103B80000300030003000325032303030071003037
:103B90000160001100700031022003500480001009
:103BA00000610000001400630073007200620043B3
:103BB00000000013000600000000000400120000D6
:103BC0000000000000000004000400370037003C43
:103BD0000244000000000000000000650000003505
:103BE0000081000000050000008300000001017159
:103BF00001010101011101010131010101010180F6
:103C000001100161013B0014006301730172016244
:103C10000143010001130106013D013500040112B9
:103C2000010001000100010001040104013301331E
:103C3000013C014401320136000001000165010030
:103C400001350081010001050182018301000103AA
:103C500004710402046004110470040204020401EB
:103C60000402041004610400041404630473047265
:103C70000462044304000413040604000400040462
:103C80000412040004000400040004510464000051
:103C9000040004000444040004000400040004655B
:103CA0000400043504810464000504000483040056
:103CB000040302710230016002110270020102026B
:103CC0000202028002100261023A004100630273A4
:103CD0000272026202430200021302380000020074
:103CE00002040212020002000200020002040204A6
:103CF00002370037003C0244020002390000020093
:103D0000026502000235028102000205028202837E
:103D100002000236000100060000000F0000000053
:103D200000000000000000000003FFFF000004038B
:103D3000FFFF0000FFFF0FF4010005C40403200093
:103D40000100000B000000000000000003010F0054
:103D50000000000000000000000000000000000063
:103D60000000000000000000000000000000000053
:103D7000000C2536251225402418253C25182548F9
:103D8000251E25402418253C25242540240000001C
:103D9000002A2540240000000000000000302540DB
:103DA00024000000000000000000000000000000EF
:103DB0000000000000000000000000000000000003
:103DC00000000000000000000000000000190000DA
:103DD00000F0810E19190001002381481D1900020D
:103DE0000023814C1D1900030021811619190004BC
:103DF000002381501D190005002181541D19000662
:103E000000308118191900070021811919190008BB
:103E10000021811B191900090021811D1919000AAF
:103E20000023811F1913003C281F0042281F8048CF
:103E3000280000AE280100AE280200E8270280E238
:103E4000270300EE270400F4270480FA270500006A
:103E50002806000C2831001E283300242834002AAC
:103E60002836003028FFFF00000A00000002000092
:103E70000004000000080000001000000020000006
:103E8000004000000080000000000100000002006F
:103E900000000400000008000000100000002000E6
:103EA00000004000002A0400003905EE182A040131
:103EB000063905EA182A0402063905F2182A04040C
:103EC000063905F6182A0433032823211D2A040481
:103ED000F01023221D014C30067C300876300B9AFE
:103EE00030109A2D025230056A300758300C3430A9
:103EF0000D403064902BFF00000300030004000815
:103F00000010001F003E007B00F600EC01D703AF5D
:103F1000075D0FB91E713D000007ECFDFDFDECDCF7
:103F2000DCCCBCACAC9C9C8C7C7C6C6C5C5C5C4CE1
:103F30004C3C3C2C2C1C1C0C0055003905FE180C6C
:103F4000007501390502190C0085013905FA1800C0
:103F5000160F00000B150B020002220F3300000E9B
:103F60000FD0D1D2D3D4D5D6D7D8D9DADBDCDDDEA9
:103F7000DF00000000000000000000000000000062
:103F8000005A6967426565416C6C69616E636530B2
:103F900039150AF4D4C0A595827263615550490061
:103FA000034D4C4651181A250502303016181920B9
:103FB000231A1C1E300001191618161618230300A8
:103FC000303017181921301B1D1F30003C40423A79
:103FD0003F3F392F47300C0E020B040B0A07080035
:103FE0000F02040201010101090200BE040AE803F4
:103FF0000000F6FB193FE8030100030000007F000A
:10400000913F0E000000040403100A0C10080C0578
:104010000810060303021EFF15033C18000A1015C2
:104020000400FF0009281E74EC1212F974FD121925
:104030006E8908D2807AF47B0112257EC280E4F575
:104040000AF50B780A1218C87C077D007A017B04F8
:1040500012235674021218A5E9F8740968702375C2
:104060000A1D750B1D780A1218C8750A07750B0012
:10407000780A1218C87C007D007A017B0412236242
:104080008024E87026750A1D750B1D780A1218C861
:10409000750A07750B00780A1218C87C007D007A33
:1040A000017B0412236874041218A5122590E4F50C
:1040B0000A780A1218C87902908AE5121BE81225BC
:1040C0009674021218A5780A1218C87903908AE526
:1040D000121BE812259674021218A5780A1218C845
:1040E0007904908AE5121BE812259674021218A52D
:1040F000901D21E0F83395E0F97440C398FEE499EF
:10410000FFC3EE940112501550047E01800BC3EEE4
:10411000948012501540027E7FEEFA79011223F24C
:10412000EEF9121EA07A327B0012257E901D1DE052
:10413000C333901908F0E5089018C8F07A027B1D87
:1041400079011225DE7CA37D3A904011E493FA9028
:104150001D24E0F912244C7A247B1D1238267C722F
:104160007D257A007B00901D24E0F91224527A020A
:104170007B1D79021225DE7CA57D3E904012E493E2
:10418000FA901D30E0F912244C7A307B1D1238264B
:104190007C727D257A007B00901D30E0F91224525C
:1041A0007A027B1D79031225DE7C377D3F90401318
:1041B000E493FA901D3CE0F912244C7A3C7B1D12EA
:1041C00038267C727D257A007B00901D3CE0F91238
:1041D00024529018C8E0F91224287AB47B251236AC
:1041E000E29018C8E0F91226029018C8E0F91222ED
:1041F000061223D47AC87B0012257E85218285226F
:104200008374AEF0750A01780A1218C87402121984
:10421000387A00793C121E4674021218A5E970041F
:1042200074018001E49018D7F07E7FEEF50A780AD9
:104230001218C87902908AE5121BE81225967402BA
:104240001218A57A147B0012257E1EEEC39402502C
:10425000DA9018D7E070030242ED901D22E060046E
:10426000D2F08002C2F01225D21221CA79001221A6
:10427000E29018D5E0F91221DC901D01E0F50978F3
:10428000091218CC75094078091218CC7B807C0083
:104290007D807A0079001221D074021218A51221B3
:1042A000E87AF47B0112257E751064751100751291
:1042B000007513007E01EEF91221E285100C8511C4
:1042C0000DAA0CAB0D12257E908B057810121A509A
:1042D000908B017810121999700C75100F751100E0
:1042E0007512007513000EEEC394C840C97AC87BDE
:1042F0000012257E121D687401121BFFE4F0A3F06A
:10430000852182852283F0AC21AD2204121930125E
:104310001D6EE970147401121BFFE064607004A349
:10432000E06401700474018001E49018D8F07E010B
:10433000EEF50A780A1218C87902908AE5121BE88D
:1043400012259674021218A57A147B0012257E0E8F
:10435000EEC3947F40DAE4F50A780A1218C87902AD
:10436000908AE5121BE812259674021218A5D280D5
:104370007AE87B0312257EC2809018D7E0600B900C
:1043800018D5E0F91221DC1221E8122566908B493C
:104390001216CB7A017B009018C8E0F91223A4749E
:1043A000041218A574031218A57F0C02164674F6A1
:1043B0001212F97E7FEEF50875090078081218C808
:1043C0007902908AE5121BE812259674021218A54C
:1043D0007A0A7B0012257E1EEEC3940250D77E011E
:1043E000EEF50878081218C87902908AE5121BE8E1
:1043F00012259674021218A57A0A7B0012257E0EE9
:10440000EEC3947F40DA908B591216CB7A207B0052
:104410009018C8E0F912239E74041218A57F0202B6
:10442000164674F41212F974FF12196EEAFEEBFFCD
:1044300054807055EEA2E040030245429018CDE052
:1044400060030245399018CEE02401F0A3E0340067
:10445000F09018CEE064057002A3E070067401903D
:1044600018CDF074019018CAF0024539EA2417F506
:1044700082E43509F583E0FAA3E0FBEA4B6003121E
:1044800022E4AA08AB0912224E9018C8E0F91222C1
:10449000608A088B09EA450970030245318A828BDC
:1044A00083E024CC60C624FE603F247670D4A3A3AE
:1044B000A3E0F50B8A828B83A3A3E0F50A901CE3AB
:1044C000E064017007AA0BA90A121DB6AA0BA90A7B
:1044D000121D56E50AA2E650A97913122A7C74012E
:1044E0009018CAF01225668099A3A3E0601A147090
:1044F000918A828B83A3E07089121E6AC2AFC2AF19
:1045000075C9AB75C95B80FE8A828B83A3E06003AB
:104510000244828521828522837401F0AA21AB2284
:104520007952122A40908B09121BE812318A0244F8
:1045300082EEFAEF64800245D3122566EE64010232
:1045400045D1540260599018CB1248E1602B147089
:104550003012259C1225BA9018CBE06017908AFD86
:104560001216CB7A027B009018C8E0F912239E74D1
:10457000041218A5EE640280581225841225D880F2
:10458000D6908AFD1216CB7A087B009018C8E0F905
:1045900012239E74041218A59018CBE4F080D5EE77
:1045A00054086008122560EE64088025EE5404600B
:1045B00008122578EE64048018EE54106008C2805A
:1045C000EE6410FA8014EE5420600B122554EE6451
:1045D00020FAEFFB80047A007B0074010249037427
:1045E000F41212F99018CC1248E1600F14603B14D9
:1045F00060681470030246C90247389018CAE06028
:10460000227A067B001222DE8A088B09EA450970AD
:10461000030248C2124FFAA3124C9674EEF0A37430
:104620001880627C007D000246BD9018CAE06026BA
:104630007A067B001222DE8A088B09EA450970039C
:104640000248C28A828B837401F0A3124C9274EAEE
:10465000F0A37418802F7C0180619018CAE0605923
:104660007A067B001222DE8A088B09EA450970036C
:104670000248C28A828B837401F0A304124C9274A4
:10468000F2F0A37418124C9F1218CC750A01780A24
:104690001218CC780A1218CC78081218C87C2A7D17
:1046A000047ADA7B18790212247C74051218A5AA00
:1046B00008AB091222E40248C27C027D067A2A7BFA
:1046C000047902121C900248C29018CAE060567A1F
:1046D000067B001222DE8A088B09EA450960538AAC
:1046E000828B837401F0A37404124C9274F6F0A3CD
:1046F0007418124C9F1218CC750A01780A1218CC43
:10470000780A1218CC78081218C87C2A7D047ADA44
:104710007B18790212247C74051218A5AA08AB092B
:104720001222E4800D7C047D067A2A7B0479021231
:104730001C9012258A0248C2E4F09018CAE0700367
:104740000248DF7A067B001222DE8A088B09EA45DE
:1047500009603E124FFAA31248FA741FF0A3741DA9
:10476000124C9F1218CC750A01780A1218CC780ADC
:104770001218CC78081218C87C067D007ADA7B18EB
:10478000790112247C74051218A5AA08AB0912221B
:10479000E49018CAE060557A067B001222DE8A088F
:1047A0008B09EA45096052124FFAA31248E97420B6
:1047B000124C817408F0A37419124C9F1218CC7516
:1047C0000A01780A1218CC780A1218CC7808121844
:1047D000C87C087D007ADA7B18790112247C740584
:1047E0001218A5AA08AB091222E4800D7C007D00F6
:1047F0007A087B007901121C909018CAE0700302BD
:1048000048BD7A067B001222DE8A088B09EA450938
:10481000604D8A828B837401F0A37433F0A3740318
:104820001248E97428124C817421F0A3741D124CB3
:104830009F1218CC750A01780A1218CC780A12183F
:10484000CC78081218C87C2A7D047ADA7B187902A1
:1048500012247C74051218A5AA08AB091222E49050
:1048600018CAE060587A067B001222DE8A088B099B
:10487000EA450960488A828B837401F0A37404F0CE
:10488000A374F01248FA7422F0A3741D124C9F1204
:1048900018CC750A01780A1218CC780A1218CC784C
:1048A000081218C87C2A7D047ADA7B18790212244F
:1048B0007C74051218A5AA08AB091222E4E490182A
:1048C000CAF09018CCE06017908AFD1216CB7A08D7
:1048D0007B009018C8E0F912239E74041218A5807A
:1048E00025E0F8740128F0E8221248ED221248F180
:1048F00022F08A828B83A3A3A3221248ED741012A4
:104900004C85221218A57F04021646C082C08390EF
:1049100018C9E07050901980E064076005E06406F3
:10492000701F9018CAE06019D280908A9D1216CB31
:104930007A107B009018C8E0F912239E74041218B4
:10494000A59018CE1250867005E49018CDF0908A8C
:10495000FD1216CB7A027B009018C8E0F912239E54
:1049600074041218A502507F021872C082C083908E
:104970008B0D1216CB7A047B009018C8E0F9122335
:104980009E74041218A5790002507F74F61212F971
:1049900075081D75091D78081218C875080775096E
:1049A0000078081218C87C007D007A017B0412236D
:1049B0006274041218A5901D22E0F8A3E06860213B
:1049C000E8F06004D2F08002C2F01225D29018D72D
:1049D000E0600E9018D5E0F91221DC1221E81225D2
:1049E000BA02441DEAF8EBF9E824FF1AE934FFFBA8
:1049F000E849601C78E87903E8FCE9FDEC24FF183D
:104A0000ED34FFF9EC4D60DC00000000000080E8B0
:104A100002187274E41212F974FA12196E74041204
:104A20001BFF74641250007402121BFF7464125056
:104A3000008521828522837464125000A821A92256
:104A40008808890978081218C8740412193874067D
:104A50001219301223DA74021218A54003024BAB6C
:104A60007404121BFF127D4312122D9018EA78086D
:104A7000121B6E7402121BFF127D4312122D90182E
:104A8000EE7808121B6E852182852283127D4312E7
:104A9000122D9018F27808121B6E9018EE780C12F6
:104AA0001B8C908B557808121B8C780C790812158A
:104AB000685009750C00750D00024B757A007B007B
:104AC0008A088B0974027808121A76AC08AD09744A
:104AD0001C2CF58274893DF5837810121B8C78109C
:104AE000790C121519400E0AEA70010BC39407EBFA
:104AF00012501640CB74542CF58274893DF583789E
:104B000014121B8C748C2CF58274893DF5837818F3
:104B1000121B8C74002CF58274893DF58378081281
:104B20001B8C780879181209C2781079141209C2FE
:104B300078087910120C01780C79141209C27808DF
:104B4000790C120DE7780879181209E7908B117823
:104B50000C121B8C7808790C1209E7908B11780CD9
:104B6000121B8C7808790C1209E7780812106985F5
:104B7000080C85090DE50D3395E0F50EF50F780C61
:104B80001212129018F6780C121B6E908B15780882
:104B9000121B8C780C7908121519500F9018F6E436
:104BA000F0A3F0A374FAF0A37443F074061218A5EE
:104BB0007F1402164674F41212F99018D8E07003AC
:104BC000024C7E9018CAE07003024C717A107B0090
:104BD0001222DE8A088B09EA45097003024C7E8A9C
:104BE000828B837403F0A37455F0A3E4124C967483
:104BF000FEF0A37418124C81A3A37475F0A3740182
:104C0000124C8A7439124C8AA37402F0A37419F0FE
:104C1000EA240BF582E43509F5837485F0A3740169
:104C2000F0EA240DF582E43509F5837439F0EA24BD
:104C30000EF582E43509F58374FAF0A37418124C6A
:104C40009F1218CC750A01780A1218CC780A12182B
:104C5000CC78081218C87C0C7D007ADA7B187903AE
:104C600012247C74051218A5AA08AB091222E4804C
:104C70000D7C557D007A0C7B007903121C90024953
:104C800006124C85221248F1A322124C85A3A3A33D
:104C9000A322F0A374061248ED7439124C8522F059
:104CA0009018D91248E1F50A780A2243FD7853F1A9
:104CB000BF43F10353FF3F43F37802187274EC12C1
:104CC00012F98A0C8B0D8C0E8D0FE9FC53E4FC90CD
:104CD0008AE9780C12184D400B7510807511847597
:104CE000121E80097510007511247512F4751300D9
:104CF0008A088B09850E0A8D0B7810790812128AA2
:104D0000A810A911E8F5DAE9F5DB7414121BFFE02D
:104D1000F8A3E0FAEC14600B14601214601914602C
:104D20002580338ADDE8F5DC75E61C80298ADFE81A
:104D3000F5DE75E71C801FEA9062ADF0E89062AC8A
:104D4000F09062A3800DEA9062AFF0E89062AEF05E
:104D50009062A4741CF0908AE9780C12184D4005FA
:104D600043E407800375E4030243A974F01212F9C7
:104D700074F912196E7C007D009018F67808121BE9
:104D80008C7808121069AA08AB09C3EA94F5EB9471
:104D90000140047AF47B019018D8E060459018FE39
:104DA0007808121B8C7808121069C3E5089410E586
:104DB000099427400675080F750927E4F50AF50BD5
:104DC000908B19780C121B8C7808790C1211929028
:104DD0008B1D780C121B8C7808790C12128AAC0887
:104DE000AD09C3EA9CEB9D5005ECFEED8003EAFEA5
:104DF000EBFF901D21E0F50C3395E0F50DF50EF578
:104E00000F780C1212128E088F09E4F50AF50B7850
:104E10000812122D78081218C0908B211216CB9010
:104E20008B251216CB908B551216CB908B29121B0B
:104E3000E812241674101218A512105F780C1210C4
:104E400069E508C3950CF8E509950DF9C3E89401E7
:104E5000E912501650047801800CC3E89480E912DE
:104E600050164002787FE8F508901D21E0FA90186E
:104E7000E9E06A701B901D1AE065087002A3E0600B
:104E800024E8F9121EB8901D1AE508F0A3E4801476
:104E9000E8F9121EBE901D1AE508125000901D215F
:104EA000E09018E9F0901D1FE07034908A6FAC21FB
:104EB000AD2274071217EEAA21AB22121EAC901875
:104EC000D3E4F09018D2F09018D1F09018D7E060A9
:104ED0000579021221E27401901D1CF0024FF0903E
:104EE0001D1DE07014787F7480C398F8C3EE946E33
:104EF000EF94005018740280307D7F7C017B7F7AB4
:104F000001F91225AEE9F870DE780080DFC3EE9477
:104F1000FAEF940050047403800FC3EE947CEF9476
:104F20000150047404800274057508007F007E003F
:104F300024FE600D14600814600B14600E800E884F
:104F400008E8FF80088808E8FE80028808E50890E5
:104F500018D1F0EF9018D2F0EE9018D3F09018D44A
:104F6000E060119018E8E4F09018E7F09018E6F08F
:104F70009018D4F0901D1CE06032908A76AC21AD80
:104F80002274071217EE04121BFFE508F0740212D8
:104F90001BFFEFF07403121BFFEEF0AA21AB2212ED
:104FA0001EAC125005F0E4901D1C80229018E6E023
:104FB0006508700E9018E7E06F70079018E8E06ED3
:104FC000600DEEFBEFFAA908121EB2125005F09028
:104FD00018D7E0601B901D1DE070047902800E7DE3
:104FE000FE7C027B7F7A01F91225AEE9F91221E2FB
:104FF00074071218A57F080216468A828B837401F3
:10500000F0A3E4F022E5089018E6F0EF9018E7F03E
:10501000EE9018E822EF9400A2D265D0332274F704
:105020001212F9E9FE74016E7007901D1F74018061
:1050300007EE7008901D1FE4F012259C7F010216F8
:1050400046C082C0838A828B83A31250869019093E
:1050500070077401F0A3E48004E8F0A3E9F08A8209
:105060008B83E0901908F0C313901D1DF012257872
:10507000901D1DE060047901800279001225A2D004
:1050800083D082021872E0F8A3E0F9E8492274EEB6
:105090001212F9E9FEEB6A7004ECF98065EEC39A2E
:1050A0005003EA8006EBC39E5002EBFEEAF510EED9
:1050B000C39510F50895E0F50995E0F50AF50BECB8
:1050C000F8EDC398125107121192EBC395101251CB
:1050D000071214468C0CE4F50DF50EF50F780879DF
:1050E0000C121A63908B5578081217A640047900A9
:1050F0008010908B2D78081217A6500479FF80023B
:10510000A9087F0A021646F50C95E0F50D95E0F525
:105110000EF50F7808790C22C082C0839018CDE07C
:1051200060429019061250869018C9601AE07034D7
:105130007401F09018D3E0FB9018D2E0FA9018D1E7
:10514000E0F9121EC4801DE0601A74019018CAF0C4
:10515000E49018C9F0121ECA74019018D4F01225F8
:105160009C12256602507F74F41212F99018D7E051
:10517000607A9018D8E070169018EE7808121B8CA0
:105180007808121069AA08AB091225C0805B901834
:10519000D6E0600814601B14602E80409018EE78F2
:1051A00008121B8C7808121069AA08AB091225C0D6
:1051B000802A9018FE7808121B8C7808121069AAB1
:1051C00008AB091225C680149019027808121B8CAE
:1051D0007808121069AA08AB091225CC9018D6E0FD
:1051E00004F0C394034002E4F01221E8024906747B
:1051F000E01212F974FE12196E8A0A8B0B9018D7FE
:10520000E07003025FEA9018D5127C981218CC75F2
:10521000080778081218CC7B267C7E7D887A067970
:105220002D1221D074021218A59018D5127C981254
:1052300018CC75080B78081218CC7B267CBA7D87B1
:105240007A31792E1221D074021218A5127C95128F
:1052500018CC75080778081218CC7B267CA17D88AD
:105260007A06792D1221D074021218A5127C95129B
:1052700018CC75080B78081218CC7B267CF17D873A
:105280007A31792E1221D074021218A5126E2E4096
:1052900006750A0F750B277508657509869018D075
:1052A000E06401701B126E7A1218CC750C17780C22
:1052B0001218CC7B17AC08AD097A1479340253E686
:1052C000E06402703D7E28126E7C1218CC750C17BB
:1052D000780C1218CC7B17AC08AD097A1479281217
:1052E00021D074021218A5126E7C1218CC750C17FE
:1052F000780C1218CC7B17AC08AD097A14794102EE
:1053000053E6E06403705D7E1B126E7C1218CC7550
:105310000C17780C1218CC7B17AC08AD097A1479ED
:105320001B1221D074021218A5126E7C1218CC75B3
:105330000C17780C1218CC7B17AC08AD097A1479CD
:10534000341221D074021218A5126E7C1218CC757A
:105350000C17780C1218CC7B17AC08AD097A1479AD
:105360004D0253E6E0640460030253EE7E0F126EBA
:105370007C1218CC750C17780C1218CC7B17AC0863
:10538000AD097A14790F1221D074021218A5126E89
:105390007C1218CC750C17780C1218CC7B17AC0843
:1053A000AD097A1479281221D074021218A5126E50
:1053B0007C1218CC750C17780C1218CC7B17AC0823
:1053C000AD097A1479411221D074021218A5126E17
:1053D0007C1218CC750C17780C1218CC7B17AC0803
:1053E000AD097A14795A1221D074021218A5126DDF
:1053F000FB500A7E349018D07401F0802B126E4C52
:10540000500A9018D07402F07E28801C126E3A5018
:105410000A9018D07403F07E1B800D126E1C500889
:105420009018D07404F07E0FA80AA90B7AE87B03C9
:105430001211397401121BFF126E6F121139EAF842
:10544000EBF97A647B00121139126E5E121139EA9F
:10545000F8EBF97A0A7B00121139E8F51DA80AA9C0
:105460000B7A0A7B00121139EAF509751E82751F45
:1054700084751AC7751B847518DB7519857516AA8E
:1054800075178675145175158575120C751385750C
:105490001096751185750E34750F87750C20750D76
:1054A00086750AEF750B869018D0E06401600302E0
:1054B00055CCEA602D146041146055146069146085
:1054C0007D14700302555414700302556A1470035E
:1054D0000255801470030255961470030255AC02F5
:1054E00055CC127C951218CC75081778081218CC78
:1054F0007B17AC1EAD1F0255C0127C951218CC75DF
:10550000081778081218CC7B17AC1AAD1B0255C0CF
:10551000127C951218CC75081778081218CC7B17D6
:10552000AC18AD190255C0127C951218CC7508172D
:1055300078081218CC7B17AC16AD170255C0127C38
:10554000951218CC75081778081218CC7B17AC1474
:10555000AD15806C127C951218CC7508177808125E
:1055600018CC7B17AC12AD138056127C951218CC58
:1055700075081778081218CC7B17AC10AD11804055
:10558000127C951218CC75081778081218CC7B1766
:10559000AC0EAD0F802A127C951218CC75081778C6
:1055A000081218CC7B17AC0CAD0D8014127C951230
:1055B00018CC75081778081218CC7B17AC0AAD0BFD
:1055C0007A14EEF91221D074021218A5126E056039
:1055D0000302580AE51D602D1460411460551460E3
:1055E0006914607D14700302567714700302568D9F
:1055F0001470030256A31470030256B91470030208
:1056000056CF0256EF127C951218CC750817780801
:105610001218CC7B17AC1EAD1F0256E3127C9512FC
:1056200018CC75081778081218CC7B17AC1AAD1B6C
:105630000256E3127C951218CC75081778081218D8
:10564000CC7B17AC18AD190256E3127C951218CC1E
:1056500075081778081218CC7B17AC16AD170256D0
:10566000E3127C951218CC75081778081218CC7BB9
:1056700017AC14AD15806C127C951218CC750817F8
:1056800078081218CC7B17AC12AD138056127C959B
:105690001218CC75081778081218CC7B17AC10AD0F
:1056A000118040127C951218CC75081778081218D2
:1056B000CC7B17AC0EAD0F802A127C951218CC75DE
:1056C000081778081218CC7B17AC0CAD0D8014129B
:1056D0007C951218CC75081778081218CC7B17AC7B
:1056E0000AAD0B7A14EEF91221D074021218A5E556
:1056F00009602D14604114605514606914607D14B4
:1057000070030257921470030257A81470030257D3
:10571000BE1470030257D41470030257EA02580AE9
:10572000127C951218CC75081778081218CC7B17C4
:10573000AC1EAD1F0257FE127C951218CC750817CF
:1057400078081218CC7B17AC1AAD1B0257FE127CDE
:10575000951218CC75081778081218CC7B17AC185E
:10576000AD190257FE127C951218CC7508177808EF
:105770001218CC7B17AC16AD170257FE127C95128F
:1057800018CC75081778081218CC7B17AC14AD1517
:10579000806C127C951218CC75081778081218CCFA
:1057A0007B17AC12AD138056127C951218CC75087D
:1057B0001778081218CC7B17AC10AD118040127C02
:1057C000951218CC75081778081218CC7B17AC0EF8
:1057D000AD0F802A127C951218CC75081778081224
:1057E00018CC7B17AC0CAD0D8014127C951218CC24
:1057F00075081778081218CC7B17AC0AAD0B7A1411
:10580000EFF91221D074021218A5126E1060030273
:105810005B68852182852283E0602D1460411460DD
:105820005514606914607D1470030258BA14700333
:105830000258D01470030258E61470030258FC1486
:105840007003025912025932126E851218CC751C5F
:1058500017781C1218CC7B17AC1EAD1F02592612EC
:105860006E851218CC751C17781C1218CC7B17ACDF
:105870001AAD1B025926126E851218CC751C1778AA
:105880001C1218CC7B17AC18AD19025926126E8564
:105890001218CC751C17781C1218CC7B17AC16ADDF
:1058A00017025926126E851218CC751C17781C1217
:1058B00018CC7B17AC14AD15806C126E851218CC09
:1058C000751C17781C1218CC7B17AC12AD138056C0
:1058D000126E851218CC751C17781C1218CC7B1709
:1058E000AC10AD118040126E851218CC751C177863
:1058F0001C1218CC7B17AC0EAD0F802A126E8512CD
:1059000018CC751C17781C1218CC7B17AC0CAD0D7D
:105910008014126E851218CC751C17781C1218CCC6
:105920007B17AC0AAD0B7A14EEF91221D074021277
:1059300018A5E51D602D14604114605514606914AC
:10594000607D1470030259D51470030259EB147072
:1059500003025A01147003025A17147003025A2DDD
:10596000025A4D126E851218CC751C17781C12182D
:10597000CC7B17AC1EAD1F025A41126E851218CC9B
:10598000751C17781C1218CC7B17AC1AAD1B025A69
:1059900041126E851218CC751C17781C1218CC7B1E
:1059A00017AC18AD19025A41126E851218CC751C2D
:1059B00017781C1218CC7B17AC16AD17025A41127F
:1059C0006E851218CC751C17781C1218CC7B17AC7E
:1059D00014AD15806C126E851218CC751C17781CCE
:1059E0001218CC7B17AC12AD138056126E851218AC
:1059F000CC751C17781C1218CC7B17AC10AD11801D
:105A000040126E851218CC751C17781C1218CC7BAE
:105A100017AC0EAD0F802A126E851218CC751C17AC
:105A2000781C1218CC7B17AC0CAD0D8014126E854F
:105A30001218CC751C17781C1218CC7B17AC0AAD49
:105A40000B7A14EFF91221D074021218A5E509603F
:105A50002D14604114605514606914607D14700346
:105A6000025AF0147003025B06147003025B1C14EC
:105A70007003025B32147003025B48025B68126EB3
:105A8000851218CC751C17781C1218CC7B17AC1E0D
:105A9000AD1F025B5C126E851218CC751C17781C4A
:105AA0001218CC7B17AC1AAD1B025B5C126E851210
:105AB00018CC751C17781C1218CC7B17AC18AD19B4
:105AC000025B5C126E851218CC751C17781C1218BC
:105AD000CC7B17AC16AD17025B5C126E851218CC2E
