:020000040000FA
:10000000020721020803FFFFFFFFFF02080BFFFFAB
:10001000FFFFFF020813FFFFFFFFFF02081BFFFFA8
:10002000FFFFFF020823FFFFFFFFFF02082BFFFF78
:10003000FFFFFF020833FFFFFFFFFF02083BFFFF48
:10004000FFFFFF020843FFFFFFFFFF02084BFFFF18
:10005000FFFFFF020853FFFFFFFFFF02085BFFFFE8
:10006000FFFFFF020863FFFFFFFFFF02086BFFFFB8
:10007000FFFFFF020873FFFFFFFFFF02087BFFFF88
:10008000FFFFFF020883FFFFFFFFFF02088B78FFDF
:10009000FFFF040000000100000000000000060057
:1000A00000000008000074B01206B153BEFBE59DCD
:1000B000A2E650FA0078F8790100E824FF18E93444
:1000C000FFF9E84970F375C600E59E70FC43BE0475
:1000D0009062707408F0C28043FD0175860043C5CC
:1000E0000B75C2D843C52043F10143F43853F4FBE8
:1000F000D29243FE0453F5F74386407401F5D5745C
:1001000009F5D48029900101E0F8A3E0F9A3E8F013
:10011000A3E9F075080175090078081207007C0151
:100120007D017A227B021204E2740212067D7508B8
:100130000875090078081207007C017D017A887B28
:1001400000790112046C740212067D900101E0F83E
:10015000A3E0F9A3E0687003A3E069700902080056
:10016000745012067D22E84970030202037E007F6C
:10017000008E0C8E0D8E0E8E0F806F900115C0823A
:10018000850C08850D09850E0A850F0B90011178E5
:10019000081206ED758301D082780812064350429A
:1001A000750801750900780812070074021207111A
:1001B0008808890978081207007900AA0CAB0DACF1
:1001C0000EAD0F12035C740412067D85188285192A
:1001D00083E0F9EEFAEFFB12032A8A088B09AE08D6
:1001E000AF09900119780C1206ED900105780C12F8
:1001F00006435087900101E06E7003A3E06F700327
:10020000020105750800750902750A45750B00782D
:100210000A120700740D120711880A890B780A1256
:100220000700790190011D12074C12035C7404123F
:10023000067D750A06750B00780A1207007407120E
:100240000711880A890B780A1207007901741512C0
:100250000758E0F50AA3E0F50BAA0AFBE4FCFD123F
:10026000035C740412067D75140075150075160084
:10027000751700802B8E0A750B00780A1207007420
:1002800003120719AA08AB091204E2740212067DD0
:100290000508E5087002050990011578141206EDAD
:1002A00074071207587814120643500302012E7582
:1002B0000A04750B00780A120700740312071188EC
:1002C0000A890B780A1207007E0185140C85150D2A
:1002D00085160E85170F7415120758E0F510A3E068
:1002E000F511E4F512F513780C79101206DA900185
:1002F00021780C1206EDAA0CAB0DAC0EAD0FEEF989
:1003000012035C740412067DA808E5095401F9E89B
:10031000496003020275880A85090B7409780A127C
:100320000730A90A12054A0202757808EB5480606A
:1003300004D2F08002C2F0EA25E0FAEB33FBE9A236
:10034000E7500474014AFAA2F0500874216AFA7462
:10035000106BFBE9C333F918E870D12274F1120570
:10036000618A088B098C0A8D0BE9FE740F120758FD
:10037000E0F50CA3E0F50D7411120758E0F50EA39B
:10038000E0F50FEE6014780E120700780C120700EB
:100390001203DA740412067D802F9001257808126A
:1003A00006ED780E120700AC0CAD0D85080C850922
:1003B0000DAA0CE50D5407FB740B7808120698A9DA
:1003C0000812046C740212067D7F080205C753866A
:1003D000FD89C1E586A2E150FA2274F11205618A15
:1003E0000C8B0D8C0E8D0FC29279051203CEE5C1D8
:1003F000A2E040F5D2920000C292790B1203CE85A2
:100400000C08850D09850E0A850F0B7410780812EB
:100410000698A9081203CE850D09A9091203CE85F5
:100420000C08A9081203CE79001203CE740F12072C
:1004300058E0FEA3E0FF7411120758E0F508A3E0AE
:10044000F509801179001203CEE5C18E828F83F009
:10045000A3AE82AF83A808A909E824FFF508E93410
:10046000FFF509E84970DDD2920203C974F512055F
:10047000618908740F5508F50A750B00740B780A2A
:100480001206C7EA2400F8EB3480F9E82400E935C5
:100490000BF985C709E508C4540FFAE5C754F84AB3
:1004A000F5C7740B120758E0FAA3E0FB801C8882A2
:1004B0008983E08C828D83F088828983A3A882A9B6
:1004C000838C828D83A3AC82AD83EAFEEBFFEE24A6
:1004D000FF1AEF34FFFBEE4F70D48509C77F04028B
:1004E00005C774F7120561ECFEED900109F0EEA36B
:1004F000F0A37462F0A37473F0A3E0541FF07409C6
:10050000120758E0F508A3E0F509E508333354FC79
:1005100090010EF074067808120730E50890010D7E
:10052000F090010F7412F0A37442F075D1FE75D6ED
:1005300001EA906271F0EBA3F0906270E0D2E1F01A
:10054000E0A2E740FB7F020205C7C082C083E9C387
:1005500033906272F0906270E0D2E0F0D083D0828B
:10056000222518C582C0E0E51934FFC583C0E0E547
:1005700018C3958224F910AF0885831985821880E5
:1005800008858319858218D2AFCEF0A3E520F0A3A9
:100590007808E608F0A3DEFAEFF0A3E58124FBF883
:1005A000E608F0A3E608F0A30808E608F0A3E608CA
:1005B000F0A315811581D0E0FED0E0F815811581FA
:1005C000E8C0E0EEC0E022851983851882E0A3FE32
:1005D000E0A3F5207808E0A3F608DFFAE0A3FFE047
:1005E000A3C0E0E0A3C0E0E0A3C0E0E0A3C0E0104F
:1005F000AF0885821885831980088582188583193C
:10060000D2AFD083D08222E49001017811790180A9
:1006100002F0A3D8FCD9FA7A117B0190008E7819E8
:1006200079018015E493A3AD82AE838A828B83F037
:10063000A3AA82AB838D828E83D8E9D9E71200A664
:10064000120762C008C3E096F50808A3E0964208C6
:1006500008A3E096420808A3E09645087001D3D0AD
:1006600008222518F58210AF08F518400C151980DE
:1006700008F51840021519D2AF8519832200C0D0A1
:10068000251810AF08F518500C05198008F51850FA
:10069000020519D2AFD0D0226016080808C6C313CD
:1006A000C618C613C618C613C618C613C6D5E0EAC0
:1006B00022251810AF08F518400C15198008F518F8
:1006C00040021519D2AF22700422600D18C6C33340
:1006D000C608C633C6D5E0F41822E627F60809E6B0
:1006E00037F60809E637F60809E637F622E026F677
:1006F00008A3E036F608A3E036F608A3E036F622B3
:1007000074028000C0E0F404120662D0E012073FD9
:10071000222518F8E43519F9222518FCE43519FDCD
:100720002275D00075813F75180175190102060701
:10073000600C08C6C313C618C613C6D5E0F422CA97
:10074000C0E0E6F0A308DAFAD0E0FA22E0FAA3E08B
:10075000FBA3E0FCA3E0FD222518F582E43519F5A2
:10076000832200000080FBFFFFFFFFFFFFFFFFFF72
:10077000FFFFFFFFFFFFFFFFFFFFFFFFFFFFFFFF89
:10078000FFFFFFFFFFFFFFFFFFFFFFFFFFFFFFFF79
:10079000FFFFFFFFFFFFFFFFFFFFFFFFFFFFFFFF69
:1007A000FFFFFFFFFFFFFFFFFFFFFFFFFFFFFFFF59
:1007B000FFFFFFFFFFFFFFFFFFFFFFFFFFFFFFFF49
:1007C000FFFFFFFFFFFFFFFFFFFFFFFFFFFFFFFF39
:1007D000FFFFFFFFFFFFFFFFFFFFFFFFFFFFFFFF29
:1007E000FFFFFFFFFFFFFFFFFFFFFFFFFFFFFFFF19
:1007F000FFFFFFFFFFFFFFFFFFFFFFFFFFFFFFFF09
:10080000021B4B02102DFFFFFFFFFFFFFFFFFFFF4B
:10081000FFFFFFFFFFFFFFFFFFFFFFFFFFFFFFFFE8
:10082000FFFFFFFFFFFFFFFFFFFFFF0218D7FFFFE4
:10083000FFFFFF02177AFFFFFFFFFFFFFFFFFFFF32
:10084000FFFFFFFFFFFFFFFFFFFFFFFFFFFFFFFFB8
:10085000FFFFFF020F62FFFFFFFFFFFFFFFFFFFF32
:10086000FFFFFFFFFFFFFFFFFFFFFFFFFFFFFFFF98
:10087000FFFFFFFFFFFFFFFFFFFFFFFFFFFFFFFF88
:10088000FFFFFF020FC1FFFF13201320FFFFFFFF39
:1008900078560010010000000100F0FF070008007A
:1008A00000FFFF0000070400000003000147726F13
:1008B000757000FF0400103C204E0000FFFFFFFF9A
:1008C0000020FD000206FFFF1E0101017A007A00F0
:1008D000B4240000E424000000000000EA2400002A
:1008E0000000000000000000000064640101F90144
:1008F000040101014404DB810000000204010C003A
:1009000044010383000000FFFFFFFFFFFFFFFFFF25
:10091000FFFFFFFFFFFF020119000E0401000000AE
:100920000000000109830E00F2137B18000104008F
:1009300000A214000000E8030000FFFFFF1488136A
:100940000000E803000064006400B801A0BB0D00D3
:10095000A0BB0D00020202070401010A1E02051ECF
:10096000020A0A0101010809080103B80B02803ECE
:100970000102FEFFE8030A050001FFFF010A01145E
:1009800001E001050301010F10FEFF030003000356
:100990000003000300030003000300030005000A36
:1009A00000140028004F009E000000EB3A000000F9
:1009B00000833A00000000FF000000FF00121B79D6
:1009C0006046121B97603DE9687008F618F618F645
:1009D00018F622748067F71209F109090974806713
:1009E000F722121B97601D121B79700519191980C7
:1009F0001A121A24701F1219D4C37003E667331930
:100A0000191940071818182208080874FFF618F674
:100A100018F618F6221219D46017121C05702192CC
:100A2000F0121C0E7019501720F01408080809095C
:100A300009E7F61819E7F61819E7F61819E7F62284
:100A4000121C0E60E6E869701F0808E62480F608AC
:100A5000E436F618547FB47F0CE654806007F6E461
:100A600018F618F622181822E9C6CC08C6CD08C612
:100A7000CE08C6CFC0E0E8C0E0EAC0E0EBC0E009C5
:100A8000E9F809E7FA09E7FBE6F918E6F8C3EC9894
:100A9000ED99EE9AEBC2E7F5F0EFC2E795F0500E54
:100AA000600CEBCFFBEACEFAE9CDF9E8CCF8EAA28C
:100AB000E7D2E7FAEB33FB13F5F0EEA2E7D2E7FE5D
:100AC000EF33FFC5F013A2E730E601B313C5F0C35F
:100AD000C0E0C0F07F00C39BFB605E9418600F40D5
:100AE0001D14601AD0E023F9D0E0F8020BC38AF09D
:100AF000E9486003D2F0E4AFF0FAF9F8803BEB305C
:100B0000E40D89F0EA6003D2F0E4AFF0F9CAF8EB43
:100B100030E30D88F0EF6002D2F0AFF0E4CAC9F81C
:100B2000EB54076014FBC3EA13FAE913F9E813F86E
:100B3000EF135002D2E0FFDBEDD0E0C0E030E73948
:100B4000C3E49FFFF5F0EC98FC42F0ED99FD42F014
:100B5000EE9AFE42F0D0E0F9D0E0F8E5F0607AE9F4
:100B600023F9EE20E742D8028067C3EF33FFEC336E
:100B7000FCED33FDEE33FE80EAEC28FCED39FDEEB2
:100B80003AFED0E023F9D0E0F84002801BC3EE1318
:100B9000FEED13FDEC13FCEF135002D2E0FF08B89A
:100BA00000067F7F74FF802EEF3350178CF020F00B
:100BB0000260100CBC000C0DBD00080EBE00040845
:100BC000E860DFE933E813FFEE2313FE4F4D4C805E
:100BD00008E95480FFE4FEFDFCEE33EF33F47004CB
:100BE000FCFD7E80D0E0FBD0E0FAD0E0F8D0E0CF92
:100BF000C618CEC618CDC618CCC6F922121B9770DF
:100C00000418181822121B79700D74FFF61819F6C3
:100C10001819F61819F622E7548066F6121C0E70A1
:100C20000F121C0570F014F608F608F608F680D1CD
:100C3000121C05700CF608F608768008E6447F80E2
:100C4000EC1219D7700C121A2760BFE65480F6E434
:100C500080BB121A27700519191980A5E869700C54
:100C6000763F18768018F618F6E8F922E6CDC0E04F
:100C700018ECC0E0E633CD33CDD313F6E719FCE72B
:100C8000191933CC33C3947F400ECD9D502408E610
:100C90005480F6E418F6800FF4043D14501408E66E
:100CA000447FF6187680E418F618F6D0E0FCD0E021
:100CB000FD22CCD313CCFD18E4C6CBC0E018E4C6AB
:100CC000CAC0E00808ED08C633E613F618E433C6D8
:100CD00075F003C3CA97CA09CB97CB199C40047D12
:100CE00008802EBD0003020DA516B6FF05060608F6
:100CF0001618C3CA33CACB33CB33CA27CA09CB377A
:100D0000CB193CC37D08803E187D0820E75CC633C4
:100D1000C6CA33CACB33CB33DDF1D5F0EB30E77B3A
:100D2000CA97CA09CB974ACB199C406F4B7025E6EE
:100D300020E0218066187D08C3CA97CA09CB97CBEB
:100D4000199CD3C633C6CA33CACB33CB3350C9DDA3
:100D5000E7D5F0E1D3E4C636C608C636C608C636BF
:100D6000C608C636C61818188031C3CA97CA09CB38
:100D700097CB199CB34097C633C6CA33CACB33CB83
:100D800033DD34D5F02EC6A2E0C640C8CA27CA0952
:100D9000CB37194A70BECB3CB480B90808E633089B
:100DA000E633601F181818D0E0FAD0E0FBD0E0FC62
:100DB000D0E0FD22187D08CA27CA09CB37CB193CE1
:100DC000D3808013F618E4B67F11F618B6FF0EF63E
:100DD00018C60470D20808768080CAF618F618F68D
:100DE00080C500121B97604F121B796012E7548078
:100DF00066F6121A247011121C05703B090909F4D9
:100E0000F618F618F618F6221219D47015121C0EE0
:100E100008080860EAE6447FF618768018E4F618B9
:100E2000F622121C0E6016121C057012E4F608F66B
:100E300008F608E65480F609090918181822EAC0CD
:100E4000E0EBC0E0ECC0E0EDC0E0E687F0A4FBAC76
:100E5000F008E687F0A42CFCE435F0FA1809E687E0
:100E6000F0A42C4B60027401CA35F0FCE433FB099A
:100E7000E687F0D2F7A42CCB35F0FC1908E687F012
:100E8000A42BCC35F0FBE433FD0819E687F0D2E75C
:100E9000A42C4ACB35F0CD3400FC09E687F0D2E72C
:100EA000A42DCC35F0FDE433FA0918E687F0D2F72B
:100EB000A42CCD35F0CA3400FC08E687F0D2E7D286
:100EC000F7A42ACC35F07A7E20E70B0ACB33CBCDC2
:100ED00033CDCC33CC33CB3350147004ED30E00E33
:100EE000D2F1E4CD3DCDCC3CCC3B5005DA05C2F18E
:100EF000EB547FC63308E63392F0FBE73309E73360
:100F0000C39A502D2B70190C0D4C4D70151806E618
:100F100008C333700D20F10AA2F013F6E418800B19
:100F20004024E4F630F002768018F618F618F680C1
:100F300024D33B14501074FFA2F013F6187680E40B
:100F400018F618F6800FA2F013F618E63303F61819
:100F5000ECF618EDF6D0E0FDD0E0FCD0E0FBD0E000
:100F6000FA22C0E074F1121360A2AFE433F509D2A3
:100F7000AF85A708AFA1EF5508FE74105E6006129A
:100F80001EBA75A1EF74085E6008121EC075A1F745
:100F90008024EFA2E092F0E508A2E082F0501790E2
:100FA0006198E0F890050CE0C398A2D265D0335068
:100FB00002E8F075A1FEE509A2E092AF7F020213FC
:100FC000BFC0E074F2121360A2AFE433FED2AF9060
:100FD00061A4E0F8759B00E591585408600875918C
:100FE000F7121F0E8023E59158541060087591EF99
:100FF000121F148014E591A2E092F0E8A2E082F0C2
:101000005007E0C2E0F012206A9061A3E0F8E5E941
:10101000585404600E12204075E9FB906193E0A2E1
:10102000E640F2EEA2E092AF7F010213BFC0E0748F
:10103000F2121360A2AFE433FED2AF9061A5E0F8E4
:10104000E5BF585404600675BFFB12208280D4129D
:1010500010A430F0431210E9803E8A088B098C0AF4
:101060008D0B78081210A420F01430E72B74FFFCCD
:10107000FBFA747F8022E4FCFBFA7480801AB4804F
:1010800008BC00F2BB00EF800F50EBF9E4C39AFA02
:10109000E49BFBE49CFCE499C6CC18C6CB18C6CAFA
:1010A00018C6F922E4C9C608CAC608CBC6D333039A
:1010B00008CCC63392F0C3947F402E94184019C9CF
:1010C000B90704CACBCC225025C309CA33CACB33D3
:1010D000CBCC33CC33D9F422F4600DC9CCC313CBC1
:1010E00013CBCA13CAD9F6CC22E4FCFBFA2214FCB7
:1010F000FBFA22C3E498F8E499F91211348026C36C
:10110000E49AFAE49BFBE920E7E9121134E498F849
:10111000E499F922C3E498F8E499F9121134E498B7
:10112000F8E499F9C3E49AFAE49BFB22EB20E7CFB9
:10113000E920E7E0B90010BB0008E88AF084F8AACB
:10114000F022E4FBC8FA22EB70227B10C833C8C936
:1011500033C9335007C39AC3DBF280069A50012A81
:10116000DBEAC833F4C8C933F4C9FA2275F008E4DD
:10117000C833C8C933C933C99AC99B5004C92AC9DD
:101180003BD5F0ECFBC833F4C8E4C9FA22080808E0
:10119000EAC0E0EBC0E086F0E7A4FA180986F0E7C1
:1011A000A42AFA180986F0E7A42AFA180986F0E7B3
:1011B000A42AFA1986F0E7A4FBE5F02AFA190886B2
:1011C000F0E7A42BFBE5F03AFA190886F0E7A42B28
:1011D000FBE5F03AFA18180986F0E7A4C5F02BFBF6
:1011E000E43AFA1908E7C5F0C6A426F6E5F03BFB99
:1011F000E43AFA1886F0E7A4F6E5F00826F6E43BB0
:1012000008F6E43A08F6D0E0FBD0E0FA2208080835
:10121000E630E7111219E8121225080808C64480C2
:10122000C618181822181818E9799EC608CAC608E0
:10123000CBC608CCC6C370207996CACBCC701979BE
:101240008ECBCC70137986CC700EF9802ACA33CA43
:10125000CB33CBCC33CC331930E7F2CCCBCA3350C1
:10126000147004EA30E00DE4CA3ACACB3BCBCC3C64
:10127000CC500209C3E913C6CC182313C6CB18C639
:10128000CA18C6F922E4CFC0E0E4CEC0E0E4CDC085
:10129000E0E4CCC0E075F020E626F608E633F60878
:1012A000E633F608E633F6181818EC33FCED33FD98
:1012B000EE33FEEF33FFC3EC9709ED9709EE970984
:1012C000EF97191919400FFFEC97FC09ED97FD09ED
:1012D000EE97FE191906D5F0BFECF709EDF709EE08
:1012E000F709EFF7191919D0E0FCD0E0FDD0E0FEC6
:1012F000D0E0FF222521C582C0E0E52234FFC5836E
:10130000C0E0E521C3958224F810AF0885832285CB
:1013100082218008858322858221D2AFCEF0A3E589
:1013200020F0A37808E608F0A3DEFAEFF0A3E58149
:1013300024FAF8E608F0A3E608F0A3E608F0A3080C
:1013400008E608F0A3E608F0A315811581D0E0FEB9
:10135000D0E0F8158115811581E8C0E0EEC0E022EB
:10136000C0D02521C582C0E0E52234FFC583C0E09E
:10137000E521C3958224F310AF088583228582215D
:101380008008858322858221D2AFC8F0A3E9F0A32B
:10139000EAF0A3EBF0A37908E709F0A3D8FAECF0A0
:1013A000A3EDF0A3EEF0A3EFF0A3D0E0F0A3D0E024
:1013B000F0A3D0E0F0A3E520F0A3E5F0F0A32285B0
:1013C0002283852182E0C0E0A3E0F9A3E0FAA3E054
:1013D000FBA37808E0F608A3DFFAE0FCA3E0FDA396
:1013E000E0FEA3E0FFA3E0C0E0A3E0C0E0A3E0F5DF
:1013F000D0A3E0F520A3E0A3F5F010AF0885832289
:101400008582218008858322858221D2AFD082D037
:1014100083D0E0F8D0E0321219EB181818121285B8
:10142000121B0A19191922121B0A1919190808087E
:10143000E618181820E7E01212851219EB18181890
:1014400022090909E719191920E7DC080808E61834
:10145000181820E7030212851219EB181818121237
:10146000851219EB181818121B0A19191922121BC8
:10147000F0B900030214ADE490040178F979148006
:1014800002F0A3D8FCD9FA7AF97B1790089878264D
:1014900079028015E493A3AD82AE838A828B83F0B8
:1014A000A3AA82AB838D828E83D8E9D9E77582386F
:1014B0007583BF74061218687582FE7583377400D1
:1014C0001218680A75F0108E238F24858228858370
:1014D00027852182852283E0CEA3E0CF85288285DF
:1014E0002783EBC9EAC8EDCBECCAC3E833C8E933BC
:1014F000C9EA33CAEB33CBC3EA9EF526EB9FF52549
:10150000B35004AB25AA26EC33CCED33CDD5F0DABD
:10151000AE23AF2422121B97601C121B7960171296
:101520001C0E7007121C057001D322C0D0121C05BE
:101530007006D0D0B322C32233D0D0501430E0F69E
:10154000C3E7960809E7960809E7960809E796B3FE
:101550002220E0D5E6970809E6970809E6970809EA
:10156000E697B322121B97601B121B796016121CA0
:101570000E7007121C05600CB322C0D0121C05703F
:1015800005D0D022C32233D0D0501330E0EBC3E7D4
:10159000960809E7960809E7960809E7962220E0E9
:1015A000E4E6970809E6970809E6970809E697220E
:1015B000D083D082ECC0E0EDC0E0E493A3FCE493E0
:1015C000A3FDED4C600D121688EC24FFFCED34FFFA
:1015D000FD80EFE493A3FCE493A3FDED4C600D12BA
:1015E0001725EC24FFFCED34FFFD80EFD0E0FDD0AB
:1015F000E0FCE493A3C0E0E493C0E022D083D08277
:10160000E9C0E0E493A3C386F0C5F095F0F908E4DF
:1016100093A386F0C5F095F0700BE493A3C39940B3
:1016200005E9048002A3E475F002A42582F582E5B1
:10163000F03583F583D0E0F9E493A3C0E0E493C0F0
:10164000E022852283852182E0A3FEE0A3F52078B5
:1016500008E0A3F608DFFAE0A3FFE0A3C0E0E0A300
:10166000C0E0E0A3C0E0E0A3C0E0E0A3C0E010AFB2
:10167000088582218583228008858221858322D264
:10168000AFD083D08202186EC0E0C3E49396087492
:1016900001939618400FE4936670080874019366EE
:1016A0001870007019A3A3C3E4939608740193966D
:1016B00018A3A3400DD0E0D0E0D0E00215ECA3A326
:1016C000A3A3A3A3D0E0227404800474028000CCFE
:1016D000C0E0EDC0E0E521C39CCCAD2250011D105F
:1016E000AF068C218D2280068C218D22D2AF12175D
:1016F000EAD0E0FDD0E0FC2274028000CCC0E0ED36
:10170000C0E0E521C39CCCAD2250011D10AF068C7A
:10171000218D2280068C218D22D2AF1217C8D0E0F5
:10172000FDD0E0FC22C0E0C0F088F0E493667008D1
:101730000874019366187000A8F0A3A3700BD0F092
:10174000D0E0D0E0D0E00215ECA3A3D0F0D0E022AE
:10175000D083D082CCC0E0E493A3600612182A1490
:1017600070FAE493A360061219541470FAD0E0FCE6
:10177000E493A3C0E0E493C0E022C0E074F212134B
:1017800060A2AFE433FED2AFE58BA2E0500579044E
:10179000121E12758B00C2E8EEA2E092AF7F01022A
:1017A00013BFC008C3E096F50808A3E096420808F6
:1017B000A3E096420808A3E0964208A2D265D0337F
:1017C000E5087001D3D00822CAC0E0E493A3C58223
:1017D000CCC582C583CDC583F0A3C582CCC582C5E7
:1017E00083CDC583DAE5D0E0CA22CAC0E0E0A3C554
:1017F00082CCC582C583CDC583F0A3C582CCC5820A
:10180000C583CDC583DAE6D0E0CA2270090808088E
:10181000226016181818C6C333C608C633C608C6D1
:1018200033C608C633C6D5E0EA22C0E0E493A3D3AA
:101830009C5010E493A3C39C400AD0E0D0E0D0E0D9
:1018400002176DA3A3A3D0E022C008C3E096F50859
:1018500008A3E096420808A3E096420808A3E09691
:1018600045087001D3D00822C09FF59FE473D09F34
:1018700022D083D082C09FE493C0E0740193C0E083
:10188000740293F59F222521F58210AF08F52140BF
:101890000C15228008F52140021522D2AF85228343
:1018A0002200C0D0252110AF08F521500C05228060
:1018B00008F52150020522D2AFD0D0227404800A4C
:1018C00074038006740280027401C0E0F4041218EC
:1018D00086D0E0121BB322C0E0C0D0E8C0E0A8A8C8
:1018E000D2AFC2C7E8A2E792AFD0E0F8D0D0D0E044
:1018F00032BB0102E722C082C08389828A83BB0097
:1019000003E08002E493D083D082226016080808A6
:10191000C6C313C618C613C618C613C618C613C640
:10192000D5E0EA222521F8E43522F9222521FAE43E
:101930003522FB222521FCE43522FD22C3E0C69698
:10194000F608A3E0C696F608A3E0C696F608A3E05C
:10195000C696F622C0E0E493A36C7009D0E0D0E014
:10196000D0E002176DA3A3D0E022252110AF08F527
:1019700021400C15228008F52140021522D2AF2209
:10198000E76670100809E766700A0809E7667004E0
:101990000809E76622E066701008A3E066700A088E
:1019A000A3E066700408A3E06622C3E7960809E78F
:1019B000960809E7960809E796A2D265D03322C3B4
:1019C000E09608A3E09608A3E09608A3E096A2D2CA
:1019D00065D03322191919E70947097009E7270962
:1019E0007005E733F4220922181818E4C396F608A4
:1019F000E496F608E496F608E496F622C3E096F03C
:101A000008A3E096F008A3E096F008A3E096F02281
:101A1000C3E697F60809E697F60809E697F6080977
:101A2000E697F622181818E60846087009E6260810
:101A30007005E633F4220822C3E4939608740193F8
:101A4000960874029396087403939622E026F6088B
:101A5000A3E036F608A3E036F608A3E036F622E661
:101A600027F60809E637F60809E637F60809E637E3
:101A7000F622700422600D18C6C333C608C633C6EA
:101A8000D5E0F41822E657F60809E657F60809E605
:101A900057F60809E657F622E056F608A3E056F690
:101AA00008A3E056F608A3E056F622E026F008A3C5
:101AB000E036F008A3E036F008A3E036F022E05666
:101AC000F008A3E056F008A3E056F008A3E056F0B3
:101AD00022E493F608740193F608740293F60874EE
:101AE0000393F622E046F008A3E046F008A3E046A0
:101AF000F008A3E046F022E647F60809E647F608B4
:101B000009E647F60809E647F622E4C397F709E431
:101B100097F709E497F709E497F722C6F4C608C6D1
:101B2000F4C608C6F4C608C6F4C622C3E09608A3E5
:101B3000E09608A3E09608A3E09622C3E79608097A
:101B4000E7960809E7960809E7962275D00075819F
:101B50003F7521017522040002146E600C08C6C393
:101B600013C618C613C6D5E0F422E6F008A3E6F0C3
:101B700008A3E6F008A3E6F022E7094709C31347E4
:101B800009336002E733F422E0F608A3E0F608A385
:101B9000E0F608A3E0F622E6084608C31346083339
:101BA0006002E633F422800100E9F874FF28F904AA
:101BB00070F622CAC0E0E6F0A308DAFAD0E0FA2212
:101BC000E0F8A3E0F9A3E0FAA3E0FB22E8F0A3E940
:101BD000F0A3EAF0A3EBF022EAF0A3EBF0A3ECF021
:101BE000A3EDF022E0FAA3E0FBA3E0FCA3E0FD22DA
:101BF000E5C754F84401F5C77901222521F582E4AF
:101C00003522F58322E72719471947194722E62687
:101C100018461846184622C2AF75D69F0200002209
:101C20001218710FE003121871C0E003121871113D
:101C3000E10312187155E103121871EFE103121854
:101C4000715FE2031218718EE20312187194E303BC
:101C5000121871BEE30312187112E403121871E630
:101C6000E40312187114E703121871C2E703121883
:101C7000712FEA03121871B4EA03121871B7ED0359
:101C8000121871EBEF0312187127F003121871800C
:101C9000F10312187193F103121871D0F1031218A5
:101CA0007199F3031218716CF104121871E8F104C0
:101CB0001218711BF20412187149F204121871877C
:101CC000F204121871C4F404121871E3F404121827
:101CD0007128F504121871BEF5041218710AF60481
:101CE0001218719EF60412187177F704121871D346
:101CF000F70412187131F804121871A4F8041218BC
:101D000071E8F80412187140F90412187162F904AC
:101D1000121871F2F90412187183FA04121871CFB3
:101D2000FA04121871FBFA041218713CFB04121821
:101D300071D2FC04121871BEFD0412187199FE04D0
:101D400012187175B606121871A2B606121871BD76
:101D5000B606121871E2B6061218718DB70612187F
:101D60007152B8061218717CB806121871F6BA06CC
:101D7000121871B2BB0612187197BC0612187106C0
:101D8000CC0612187117CC0612187131CC06121835
:101D900071FCFF01121871EAFF0412187163FF034E
:101DA00012187173FF0312187185FF03121871EB7B
:101DB000FF0312187162C706121871E6C7061218DF
:101DC000714EC80612187119BD061218712DBD0684
:101DD000121871A3BD06121871F2BD0612187127F0
:101DE000BE061218714CBE061218716FBE0612188C
:101DF00071AABE06121871D7BE061218711EBF0650
:101E000012187167C906121871B4C906121871BD8B
:101E1000C906121871E4C906121871789B061218C7
:101E200071989D06121871D39D06121871459E0671
:101E3000121871269F06121871349F06121871DB52
:101E40009F06121871D2A00612187141A10612182D
:101E50007140CC061218710A7A00121871367A0095
:101E6000121871A07C00121871E07C001218711C0D
:101E70007D00121871307D00121871497D00121812
:101E8000713B7E00121871EE7E00121871027F0005
:101E90001218718AC206121871AEC206121871C7E2
:101EA000C20612187105C30612187135C30612183E
:101EB0007162C306121871C8C306121871CBC3062B
:101EC000121871D5C306121871E2C306121871CE2A
:101ED000B306121871EEB3061218712DB40612185B
:101EE000714BB40612187166B406121871CCB406A0
:101EF000121871D8B40612187135B506121871444B
:101F0000B50612187168B50612187129B6061218AE
:101F10007136B60612187147B60612187173FF04AF
:101F2000121871BBFF04121871E7FF04121871B286
:101F3000A10612187106A30612187114A30612182E
:101F40007127A3061218713CA30612187151A3063B
:101F500012187164A306121871E0A30612187145D5
:101F6000A406121871DBA406121871B4A506121883
:101F700071C4A506121871D3A506121871E3CA061A
:101F800012187107CB061218712FCB061218715751
:101F9000CB061218718DFD01121871B4FD011218D3
:101FA00071D2FD0112187141FE01121871BDB00607
:101FB000121871D6B006121871E2B006121871F636
:101FC000B00612187114B1061218711EB10612185B
:101FD0007128B1061218713BB106121871C5B1060D
:101FE0001218713AB2061218716EB206121871BC4C
:101FF000B20612187109B30612187124B30612182A
:10200000712EB30612187154B306121871B9B306C3
:102010001218712CCA061218714ECA06121871E2F3
:10202000FF01121871EC8A06121871188B0612182B
:1020300071358B06121871488B06121871638B0666
:10204000121871BD8B06121871EB8B06121871FFF6
:102050008F061218715D91061218718F9106121871
:1020600071F291061218717793061218719F9306F8
:10207000121871B49306121871C4930612187104E1
:102080009406121871469406121871569406121886
:10209000712CC50612187146C5061218716EC50658
:1020A00012187187C506121871ABC506121871C9CE
:1020B000C506121871E0C5061218710EC606121870
:1020C0007129C606121871C2CB06121871E9A90649
:1020D000121871F9A906121871FEAA0612187130A9
:1020E000AB0612187160AB0612187183AB0612189A
:1020F000719AAB06121871D4AB0612187139AC067E
:102100001218717BAC06121871C2AC06121871EF6E
:10211000AC061218711AAD0612187126C1061218F3
:102120007146C1061218715AC2061218715DC206B4
:102130001218715CC60612187192C606121871AA9E
:10214000C606121871ECC606121871FCC6061218E3
:102150007140C7061218714AC70612187186940694
:10216000121871C994061218712E95061218714D25
:102170009506121871EF9506121871F89506121847
:10218000714996061218717296061218717F96069A
:10219000121871F196061218717F9706121871C401
:1021A0009706121871FD9706121871629806121898
:1021B000718B9806121871029906121871519906BE
:1021C0001218718E9906121871C39906121871D5DA
:1021D0009906121871E79906121871069A061218D4
:1021E000710F9A06121871CB9A061218710E9B067F
:1021F0001218714C9B06121871A1FF02121871EC93
:10220000C306121871B8B806121871EEB806121883
:102210007136B9061218718FBA06121871AAD7054D
:10222000121871D0D8051218710CD905121871CA7C
:10223000DA05121871F8DA0512187162DD05121844
:1022400071A2DD0512187144DF05121871DADF057D
:1022500012187134E005121871C4E00512187108E3
:10226000E1051218714AE105121871AFE205121862
:10227000712FE40512187170E6051218719EE605BB
:10228000121871CAE605121871D3E60512187130DA
:10229000E705121871C9E705121871E0EA0512186E
:1022A0007166EB05121871DE7F00121871F47F0061
:1022B0001218719CFB02121871B2FB0212187156AF
:1022C000FC0212187195FC02121871B2FC0212186D
:1022D00071E3FC0212187130FD0212187164FD02E4
:1022E0001218719FFD0212187194FF021218716783
:1022F000C806121871C6C80612187104C906121849
:102300007145C9061218713FFF051218710080044B
:102310001218710C80041218716E800412187178F2
:1023200080041218718080041218710D8104121833
:10233000714981041218713982041218719882044B
:102340001218711983041218718E8304121871D82F
:1023500083041218715384041218711A8604121817
:10236000711688041218710D8904121871488A04B4
:10237000121871978C04121871E48D041218716F81
:102380008E04121871CE8F04121871B290041218B4
:1023900071E691041218717B960412187169970402
:1023A000121871F297041218711C980412187141D6
:1023B0009804121871DA9804121871F89804121817
:1023C00071169904121871849904121871A3990452
:1023D000121871D09904121871E09A04121871C978
:1023E0009B04121871639D04121871849D041218C5
:1023F000712A9E04121871719E04121871CF9E04E6
:10240000121871789F04121871DD9F041218713C24
:10241000A004121871E6A00412187151A104121838
:10242000718DA1041218711EA20412187162A30406
:10243000121871FAA40412187191A504121871D01F
:10244000A70412187123A80412187138A8041218CE
:102450007175A804121871C2A804121871FDA8049D
:102460001218716AA90412187126AA04121871367A
:10247000AC04121871D2AE04121871D3AF04121842
:10248000711BB404121871EAB404121871E2B50495
:1024900012187190B7041218714DAD05121871829F
:1024A000AF05121871EEAF05121871D4B1051218EC
:1024B0007106B5051218716DB50512187170B50564
:1024C0001218718FB505121871BEB5051218716E0C
:1024D000B70512187180B7051218712FB8051218B8
:1024E000710CBC051218718FC105121871B2C105AB
:1024F00012187109C20512187193C205121871C51C
:10250000EB051218714FEC05121871BCEC0512188E
:1025100071BBED05121871D3EE0512187154EF0559
:1025200012187196F005121871B7F0051218719F04
:10253000F105121871EEF20512187198F3051218D0
:1025400071C2F605121871E2F8051218710C9705A0
:102550001218711797051218718C9805121871C10D
:102560009B05121871229C05121871129D051218F4
:10257000719A9E05121871769F05121871DF9F05DA
:10258000121871A7A00512187150A305121871A096
:10259000A4051218715AA6051218714AA905121835
:1025A000710BAB0512187108AC0512187178AC05E7
:1025B00012187136D60412187165D604121871E912
:1025C000D6041218714CD80412187136D904121896
:1025D00071F2DA0412187117DB0412187169DB0446
:1025E000121871FBDB0412187147DC041218715ABF
:1025F000DC04121871B7DC0412187184DD0412189F
:1026000071F6DD041218712DDE0412187176DE04E5
:102610001218711EE004121871FDE0041218714BBB
:10262000E2041218712EE304121871BAE3041218AE
:1026300071F3E30412187112E4041218715DE404DA
:102640001218717DE4041218713AE5041218715DD4
:10265000E604121871B8E604121871FEE6041218A6
:102660007106E804121871A1EA04121871C7EA048D
:1026700012187142EB0412187167EB04121871DB27
:10268000EB04121871B9EC04121871F7EC0412186B
:102690007181ED0412187168EE041218716BEE046A
:1026A00012187175EE041218717FEE041218719BE6
:1026B000EE041218710DEF0412187146EF0412188F
:1026C0007172EF0412187199EF04121871BDEF04C2
:1026D000121871F8EF041218716BF0041218719F40
:1026E000F004121871A9F004121871E5F004121820
:1026F000711AF10412187139F1041218717CCB06A9
:1027000012187194CB06121871FBFF02121871D8BF
:10271000B904121871FBB90412187159BB041218CC
:1027200071A2BB041218710EBC041218716CBC04A7
:102730001218716FBC04121871C0BC0412187135E4
:10274000BD04121871C5BD04121871C8BD04121859
:102750007149BE041218718ABE04121871AFC20406
:1027600012187159C404121871ADC4041218713CC6
:10277000C80412187174C90412187148CA041218D6
:1027800071B2CA04121871DCCA0412187195CC0413
:1027900012187178CE0412187127CF04121871C460
:1027A000CF04121871AFD00412187154D204121849
:1027B00071A6D30412187100D5041218716ED504D5
:1027C00012187175C3051218711FC4051218718A89
:1027D000C405121871A5C40512187126C505121872
:1027E000716EC5051218719AC605121871E1C605F9
:1027F00012187140C70512187152C8051218717B62
:10280000CB05121871ABCC0512187133CD05121817
:10281000713CCF05121871EECF051218718ED005DC
:102820001218715FD1051218711AD305121871B8F8
:10283000D40512187145D5051218716BD6051218FA
:102840007104D90212187167D902121871AFD90236
:10285000121871F3D9021218714EDA02121871AB04
:10286000DA02121871E6DA0212187168DB02121825
:1028700071C2DB0212187140DD02121871B8DD025C
:10288000121871D5DE02121871FDDE021218715095
:10289000E00212187161E00212187179E002121858
:1028A0007182E1021218715FE2021218715CE30298
:1028B00012187180E30212187197E302121871B8AE
:1028C000E302121871DAE302121871F9E302121826
:1028D00071D1E4021218712BE502121871C2E702DD
:1028E0001218711BE8021218713AE8021218712AC4
:1028F000E90212187160E90212187193EA021218C3
:102900007112EB021218714EEB0212187188EB0271
:10291000121871F7EB02121871ACEC021218713434
:10292000FD0312187191EF0212187109F1021218C9
:1029300071FFF20212187175F5021218714FF70249
:1029400012187110F80212187188F8021218719F8B
:10295000F80212187196F9021218718AFA02121806
:1029600071F9FA0212187172AD0612187122AF06CF
:10297000121871E1AF0612187149B00612187104ED
:10298000A60612187122A60612187166A60612185B
:10299000718CA606121871B3A606121871CBA60682
:1029A000121871E3A60612187185A706121871C7CE
:1029B000A706121871EAA806121871F3A8061218D1
:1029C00071FCA8061218717BDF031218710FA9069B
:1029D00012187130A906121871D8DB03121871C5CC
:1029E000FE05121871D3FE05121871D8FE051218D3
:1029F00071B3BF0612187178CC06121871008002EC
:102A00001218713280021218719E800212187139E8
:102A10008102121871D881021218711D82021218D7
:102A2000713F82021218715882021218717E82025E
:102A3000121871A08202121871DE8202121871221D
:102A40008302121871448302121871A683021218AD
:102A5000716D840212187124850212187196850214
:102A6000121871688602121871B286021218710566
:102A700087021218716B8702121871A5870212184B
:102A800071F787021218711388021218713E8802BA
:102A9000121871458A02121871998B02121871BBB3
:102AA0008B02121871EF8B02121871108C0212181F
:102AB000711F8C021218712A8C02121871DA8C02A2
:102AC000121871438D02121871F08D0212187128BC
:102AD0008E02121871EE8E02121871FB8F021218FC
:102AE00071459002121871D4900212187138910237
:102AF000121871739102121871DF93021218713358
:102B000095021218716C98021218713999021218F4
:102B100071C79902121871F09902121871629A0223
:102B2000121871F69A02121871549B02121871460B
:102B30009C02121871689C02121871C49D0212182E
:102B400071DD9D02121871F09D021218715F9E02D4
:102B50001218716B9F02121871789F0212187181FE
:102B60009F0212187159A1021218717FA202121845
:102B7000718FA20212187191A30212187108A40297
:102B800012187137A4021218714CA502121871188C
:102B9000A702121871F0AA02121871FAAA021218EA
:102BA000710EAB0212187118AB0212187122AB022F
:102BB0001218712CAB0212187145AB021218714F2A
:102BC000AB02121871C3AB02121871CEAB0212180D
:102BD00071F3AB02121871FEAB021218714CAC0209
:102BE00012187156AC0212187161AC02121871857C
:102BF000AC02121871A9AC0212187105AD021218BC
:102C0000714BAD0212187168AD02121871E5AD0278
:102C10001218711CAE021218715BAE02121871A864
:102C2000AE021218712AAF02121871C3AF02121845
:102C30007193B102121871F1B1021218710DB30241
:102C400012187133B30212187172B402121871980B
:102C5000B702121871D9B902121871B5BB02121855
:102C6000714BBC0212187172BE021218711EBF02A3
:102C700012187153BF02121871B8BF02121871C234
:102C8000BF02121871ECC10212187113C30212189C
:102C90007153C302121871F9C3021218718AC50266
:102CA00012187113C70212187133C7021218718CEF
:102CB000C7021218718EC802121871D8C8021218F1
:102CC0007128C90212187112CA0212187187CA0239
:102CD000121871A1CB021218711CCC0212187121AA
:102CE000CD02121871CCCF02121871EBCF0212185C
:102CF000714CD1021218710ED30212187162D302F4
:102D00001218711AD402121871C9D4021218711F44
:102D1000D502121871D5D5021218716AD60212188E
:102D200071D6D60212187110D70212187141D7024B
:102D30001218719DD8021218710080031218713296
:102D400080031218716980031218715282031218DD
:102D5000713583031218718D8303121871C88403AF
:102D60001218711485031218713C88031218719E91
:102D70008B03121871EB8C03121871818D031218DA
:102D8000718D8D03121871BF8D03121871418F035D
:102D9000121871DC9003121871849103121871C714
:102DA0009103121871109203121871649203121891
:102DB00071C992031218713193031218714E930363
:102DC0001218717E9303121871B393031218718352
:102DD00094031218712C9503121871B097031218EE
:102DE00071D09803121871B999031218713B9A03A4
:102DF0001218715A9E03121871979E03121871EFE0
:102E00009E03121871229F03121871A39F031218B8
:102E100071F09F031218717BA003121871CDA003EB
:102E2000121871A4A1031218715DA203121871F88F
:102E3000A20312187111A60312187131A7031218F8
:102E400071DEAA03121871FCAB03121871FFAB03F9
:102E50001218712EAC0312187134AE031218710DD2
:102E6000AF0312187142AF031218714AB00312185F
:102E70007100B103121871A1B203121871C6B20326
:102E800012187105B30312187177B3031218715B2E
:102E9000B40312187128B5031218715EB703121823
:102EA00071CFB7031218710FB80312187170B803FD
:102EB00012187133BC0312187122BD031218710964
:102EC000BE0312187181BE0312187143BF0312189A
:102ED0007141C10312187159C1031218716DC103F8
:102EE000121871A5C103121871D3C1031218715AB7
:102EF000C30312187165C403121871B7C403121802
:102F00007118C503121871CAC503121871F1C503EF
:102F1000121871D5C60312187186C703121871757D
:102F2000C903121871AAC90312187112CA03121820
:102F30007141CB03121871F3CB0312187124CC0327
:102F40001218713CCC03121871CBCC031218717F8C
:102F5000CF0312187157D10312187173D1031218CD
:102F6000718FD1031218715DD20312187141D6030B
:102F700012187111830112187149830112187127F7
:102F800088011218716D8801121871BA890112181E
:102F900071258A01121871AE8B01121871BE8E0153
:102FA000121871D98F01121871EB99011218717EE4
:102FB0009A01121871D09D01121871CC9E0112183D
:102FC00071279F0112187171A0011218715FA10180
:102FD000121871FBA3011218716FA501121871F27A
:102FE000A501121871F5A5011218716AA60112182F
:102FF0007174A60112187181A601121871ACA60194
:103000001218715CA70112187155A80112187100ED
:10301000A9011218711EA90112187137A9011218FD
:103020007160A90112187182A901121871D7AB0140
:103030001218719CAC01121871E1AC011218716088
:10304000AD011218710CAE011218713EAE011218CA
:103050007192AE01121871CDAE0112187114AF0148
:1030600012187164AF0112187169AF01121871BDA5
:10307000AF01121871E9AF01121871D2B001121824
:103080007123B10112187183B101121871DDB10100
:1030900012187178B201121871B7B501121871C9FE
:1030A000B60112187143B80112187153BB011218FE
:1030B00071F1BB01121871E7BE01121871A6BF01B0
:1030C000121871EABF0112187195C101121871A985
:1030D000C101121871B3C101121871BDC1011218DA
:1030E00071C9C101121871EEC101121871C7C30173
:1030F0001218711CC40112187126C4011218713003
:10310000C401121871A5C401121871F4C401121877
:103110007105C60112187152C6011218715FC701FC
:10312000121871A3C70112187149C8011218713C15
:10313000C90112187102CA0112187125CB011218A7
:103140007143CC011218712BCD0112187143CD01BE
:103150001218719ACD01121871A4CD01121871AF15
:10316000CD01121871CDCD0112187115CE011218B2
:103170007177CE011218719ECE01121871B0CE0176
:103180001218714BCF0112187180CF01121871679C
:10319000D001121871ACD00112187192D10112181D
:1031A00071B9D1011218713CD201121871ADD2015E
:1031B00012187136D40112187162D50112187125D6
:1031C000D601121871EDD60112187177D7011218B5
:1031D000719FD80112187141D901121871BCD9011F
:1031E00012187178DA01121871C2DA011218711C02
:1031F000DB01121871F4DB0112187117DC011218CF
:1032000071CADC01121871ECDC0112187155DD0174
:103210001218716BDF0112187163E0011218712727
:10322000E10112187159E301121871A3E301121898
:1032300071F3E30112187157E401121871B9E40136
:10324000121871E7E4011218710BE50112187140B0
:10325000E50112187171E501121871A4E501121847
:1032600071F4E50112187147E6011218716CE7015B
:103270001218710CE90112187167E90112187190A6
:10328000E9011218711DEA011218718BEA01121876
:103290007199EA01121871BDEA0112187112EB015D
:1032A0001218712DEB01121871DFEB011218711752
:1032B000EC011218715AEC01121871BDEC011218D0
:1032C00071BFEE01121871E9EE01121871E0EF0101
:1032D000121871EAF0011218719AF101121871783E
:1032E000F201121871B0F201121871D1F201121824
:1032F0007113F30112187175F3011218717FF30144
:103300001218718FF301121871CAF301121871AA01
:10331000F70112187197F9011218717DFB0112184B
:103320007114FC01121871B6FC01121871FB3F00F8
:10333000121871A640001218715441001218715AE7
:1033400042001218717A4200121871A34300121839
:10335000715E4500121871D1450012187175460052
:10336000121871814700121871EC47001218712869
:1033700048001218716B4800121871A64800121804
:1033800071E848001218717D4900121871F949005E
:10339000121871C34A00121871A04B00121871382C
:1033A0004C00121871524C00121871824C00121805
:1033B00071B34C00121871794D00121871894D00CB
:1033C000121871D84D00121871E54D00121871EEE7
:1033D0004D001218716C4E00121871C84E00121870
:1033E00071134F001218712E4F00121871594F00AF
:1033F000121871764F00121871824F00121871194D
:103400005100121871325100121871B75100121880
:1034100071CA5100121871E951001218718D5200D1
:103420001218710E5400121871C1550012187157FC
:1034300056001218715A5600121871CA5600121806
:1034400071E856001218717F5700121871C75700A3
:10345000121871CA5700121871905800121871FD95
:103460005800121871235900121871AE5900121821
:1034700071CC5900121871125A00121871C65A00F4
:10348000121871105B001218713F5B001218719CCA
:103490005B00121871D15B00121871FD5B001218ED
:1034A000710B5C00121871585C00121871C85C0036
:1034B000121871115D001218715D5D00121871898A
:1034C0005D00121871945D00121871B25D0012183F
:1034D000719D5E00121871A75E00121871E25E0005
:1034E000121871F25E00121871465F001218715ABC
:1034F0005F001218718960001218719E6000121826
:10350000712C6100121871716100121871FD610057
:103510001218710862001218714A6300121871655E
:103520006300121871B16300121871206400121840
:1035300071596400121871736400121871D3640019
:10354000121871726500121871BD65001218718D24
:1035500068001218713F6900121871AC69001218E6
:1035600071EC6B00121871046C00121871076C007A
:10357000121871136C00121871276C001218712F39
:103580006C00121871626C00121871656D001218CF
:1035900071F26D00121871626E00121871E46E0003
:1035A000121871A56F00121871C46F00121871659E
:1035B0007000121871C27000121871C570001218D4
:1035C000713971001218718872001218718E7300AF
:1035D000121871197400121871347500121871FCE8
:1035E00075001218712D760012187150760012189D
:1035F00071597600121871887600121871187700C8
:10360000121871CE7700121871437800121871EAFF
:1036100078001218715F79001218719679001218EB
:1036200071D4790012187186FC031218717CFC03A6
:1036300012187172FC031218710BFC03121871F04E
:10364000FB0312187140FB0312187140FA031218A1
:103650007164F903121871B6F603121871C8F503F4
:103660001218715AF503121871F896051218711B89
:10367000DF03121871EBDE03121871EE96051218B3
:10368000718396051218718FD803121871E3D7034E
:10369000121871B79405121871759405121871817A
:1036A00093051218715593051218710C9305121891
:1036B000714D9205121871398F05121871EE8C0533
:1036C000121871BE8C051218716E8C0512187108D3
:1036D0008C05121871C78B05121871F98A0512181A
:1036E00071938A05121871328A05121871D28905F0
:1036F0001218717088051218710488051218715813
:1037000087051218715387051218713C8705121826
:103710007107870512187199830512187196830530
:1037200012187151D7031218715483051218710BB6
:10373000D703121871D6D603121871A3D603121824
:10374000718ED60312187163D6031218711DFF0310
:10375000121871418305121871368305121871050C
:103760008305121871E9FE03121871FD8005121805
:10377000717080051218712C800512187100800577
:1037800012187105A906121871437F001218713FB3
:10379000DE03121871167F00121871868A0612183D
:1037A00071598A06121871268A06121871FE890646
:1037B0001218719F89061218717F89061218714AB2
:1037C0008906121871F68506121871DE8306121822
:1037D00071C88106121871488106121871F48006AA
:1037E000121871A8800612187187FA0512187192C2
:1037F000FE0312187100800612187184EE02000098
:103800000080FBE4738F000100DF1887000100DDFA
:103810001835000400A31825000200A7182600028E
:1038200000A91827000200AB1828000100B51829CC
:10383000000100B618840004008D15860001000701
:10384000182A000100B7182B000100B8182C00013D
:1038500000BD182D0008009B152E000100BE182F7A
:10386000000100BF1830000100C01831000100C184
:103870001832000100A31533000100A41534000123
:1038800000C21836000100A51538000100C3183920
:10389000000100BC1883000200DB1863000100B0C7
:1038A0001564000100B91865000100BA186D000127
:1038B00000B11571000800931566000100DA184385
:1038C000000100CB1844000200CC1845000100CED6
:1038D0001846000200CF1847000800A8154800014C
:1038E00000D1184B000100D21804000100DE18A11D
:1038F000000100E21837000100E11888000100E033
:10390000183C000100A6153D000100C41849000242
:1039100000D31867000100B2154D000200D5184E03
:10392000000100D7184F000200D8183E000100CA5D
:103930001851000100C61852000100C718530001B9
:1039400000C91854000100A7150000000000000085
:1039500001363601010001020100010301000104EA
:1039600001060605020000070100340801000F09E6
:103970000401010D0100FF0E0800001702000019EC
:103980000100FF1A0100011B0100FE1C0100081DBF
:103990000200001F0100012001000121020000239C
:1039A00001000F2402000026010001270100082861
:1039B0000200FF2A0100072B0102402C0100002D0C
:1039C0000100012E0100012F0100FF30010B1D310C
:1039D0000800003A0100083B01000F3C0100013DD6
:1039E0000100FF3E04000042040000460400004ABB
:1039F0000400004E04000052040000560400005A67
:103A00000400000000000020010F830000010020DE
:103A10000110830000020020010C8300000300203D
:103A2000010B830000040042017F81000005004279
:103A300001A181000006004201B1810000070030B1
:103A4000010E8300000040420108820000FDFF21BA
:103A50000107830300000021232B140300FDFF2135
:103A60000107830800000020052D140800FDFF2138
:103A70000107830600000010054D180600FDFF2118
:103A80000107830103710301030103010301030122
:103A900003220302030103100300030003000300D9
:103AA0000300030003000342030003240306030092
:103AB0000300030403120325032303250323030444
:103AC0000304030003000300034403000300032373
:103AD0000300036503210035038103000305030090
:103AE00003000300030003250323030300710030D8
:103AF00001600011007000310220035004800010AA
:103B00000061000000140063007300720062004353
:103B10000000001300060000000000040012000076
:103B20000000000000000004000400370037003CE3
:103B300002440000000000000000006500000035A5
:103B400000810000000500000083000000010171F9
:103B50000101010101110101013101010101018096
:103B600001100161013B00140063017301720162E5
:103B70000143010001130106013D0135000401125A
:103B800001000100010001000104010401330133BF
:103B9000013C0144013201360000010001650100D1
:103BA000013500810100010501820183010001034B
:103BB000047104020460041104700402040204018C
:103BC0000402041004610400041404630473047206
:103BD0000462044304000413040604000400040403
:103BE00004120400040004000400045104640000F2
:103BF00004000400044404000400040004000465FC
:103C000004000435048104640005040004830400F6
:103C1000040302710230016002110270020102020B
:103C20000202028002100261023A00410063027344
:103C30000272026202430200021302380000020014
:103C40000204021202000200020002000204020446
:103C500002370037003C0244020002390000020033
:103C6000026502000235028102000205028202831F
:103C700002000236000100060000000F00000000F4
:103C800000000000000000000003FFFF000004032C
:103C9000FFFF0000FFFF0FF4010005C40403200034
:103CA0000100000B000000000000000003010F00F5
:103CB0000000000000000000000000000000000004
:103CC00000000000000000000000000000000000F4
:103CD000001E24662424242E232A246C242A2478DB
:103CE0002430242E232A246C2436242E2300000082
:103CF000003C242E23000000000000000042242E7F
:103D00002348247E244E242E2300000000000000BF
:103D10000000000000542490245A242E23542490A0
:103D2000245A242E2348247E2460242E23190000A4
:103D300000F0813314190001002381681819000272
:103D40000023816C181900030021813B1419000421
:103D500000238170181900050021817418190006CC
:103D60000030813D141900070021813E141900081C
:103D70000021814014190009002181421419000A10
:103D80000023814414130084271F008A271F80907A
:103D9000270000F6270100F6270200302702802ABC
:103DA000270300362704003C2704804227050048EB
:103DB00027060054273100662733006C2734007231
:103DC0002736007827FFFF00000A000000020000ED
:103DD00000040000000800000010000000200000A7
:103DE0000040000000800000000001000000020010
:103DF0000000040000000800000010000000200087
:103E000000004000002A04000039051F142A0401A4
:103E10000639051B142A040206390523142A040452
:103E200006390527142A04330328234F1801AC2F21
:103E300006DC2F08D62F0BFA2F10E82C02B22F0524
:103E4000CA2F07B82F0C942F0DA02F64DE2AFF0075
:103E500000030003000400080010001F003E007B68
:103E600000F600EC01D703AF075D0FB91E713D00EE
:103E70000007ECFDFDFDECDCDCCCBCACAC9C9C8C10
:103E80007C7C6C6C5C5C5C4C4C3C3C2C2C1C1C00AE
:103E9000160F00000B150B020002220F3300000E5C
:103EA0000FD0D1D2D3D4D5D6D7D8D9DADBDCDDDE6A
:103EB000DF00000000000000000000000000000023
:103EC000005A6967426565416C6C69616E63653073
:103ED00039150AF4D4C0A5958272636155504930F2
:103EE0003017181921301B1D1F30003C40423A3F4B
:103EF0003F392F47300001191618161618230300F2
:103F000000034D4C4651181A250502303016181979
:103F100020231A1C1E300C0E020B040B0A0708008B
:103F20000F02040201010101090200BE040AE803B4
:103F30000000F6FB01000300E80300000000713EF2
:103F40007F000E00D13E040405100C10081E28034B
:103F50001005FF02000415033C18000A10150900A3
:103F6000FF080C031EE4F0A3F0A3F0A322123F65A8
:103F7000F0229016F912557112339622123F8022C8
:103F8000E0F508E4F509F50AF50B22E824FBF582D3
:103F9000E934FFF58322E82411F582E439F583E062
:103FA00022F583123FA722E0F508A3E0F5092212CB
:103FB000361274041218A17F080216427401F090A0
:103FC0000524E0640F2274091218A17F040216422E
:103FD000EA2413FAE43FFB123540E9227905123551
:103FE0004C740622A3A3E024F5C394132212361EB8
:103FF00090054412752F7A147B0022C082C08390F2
:1040000016D8748AF0A37433F0A3749CF0A37433AD
:10401000F09016DC7472F0A37433F0A3746CF0A308
:104020007433F0A374A8F0A37433F0A374AEF0A3B8
:104030007433F0A374A2F0A37433F0A3745AF0A302
:104040007433F09016E8747EF0A37433F0A3748494
:10405000F0A37433F0A37478F0A37433F0A374B4B2
:10406000F0A37433F09016F9125F4060099016F9CE
:1040700012556D1222149016F61258877408126B9E
:10408000DCA3F09017A2F09016FBF07C0BFDF97A00
:10409000FC7B161221667C0B7D0079007A077B176A
:1040A0001221660256E174F71212F474F712196ABB
:1040B000EAFEEBFF12413974051259A57403F012A0
:1040C00042501259872430FCE43FFD8C821241316A
:1040D000124145600812495E74FFF0A3F0EE242EF1
:1040E000E43F1C1CFD8C82F583A3E0C0E08A828B38
:1040F00083125639D0E012414588828983125E745A
:104100002403F0EE124968121BFB7403F09005398A
:104110001216CB74021219341245321218A1E9F5A5
:10412000087007EEFAEFFB123426A9087409024959
:1041300077F583E08882898322EA12413E22126069
:10414000833FF58322126E5C125993E8F0A3E912C3
:104150007133E02274F01212F4EAFEEBFF8C0C8D46
:104160000D890B124250F58312599B7410121BFBE0
:10417000E0F508A3124133F0E824FFF582E9124587
:1041800044E508F0E824FEF582E9124544E50BF029
:1041900090053EE0C0E0E824FDF582E9124544D0F8
:1041A000E0F090053DE0C0E0E824FCF582E912452E
:1041B00044D0E0F07412121BFB123FA3123F8BE5B8
:1041C00009F0E824FAF8E934FFF98882F583E50874
:1041D000F0EE2404FCE43FFD88088A828B83E0F53E
:1041E0000E8C828D83E0250EC39508126E5C1257EB
:1041F000C1850C82850D83A3A3A3A3A3A3A3A3E0DE
:1042000064037009EE125975F0A3E4800312454966
:104210001245517409F07508FC750916750A007885
:10422000081218C01269261218A17508FF7509FF37
:1042300078081218C4AC0CAD0D1245321218A1E961
:10424000F5087007EEFAEFFB123426A908023FB713
:10425000EA2402FAE43FFB8A8222C082C0839017DC
:1042600018E0C39408400474078001E08A828B83BD
:10427000F033333354F8F90256E174F01212F48A31
:10428000088B09890A8C0E8D0F750C00A2AFE433E0
:10429000F50BC2AF901712804512437C503D12437C
:1042A0009664037036E50824F9F508E50934FFF54E
:1042B000098E828F83A3A3E02405FCA3E03400FDD4
:1042C000AA08AB091222FEE50824FFF508E5093427
:1042D000FFF5097410250CF50C150A12476B1278BE
:1042E000E4E50A6004EE4F70B0E50BA2E092AFA2E5
:1042F000AFE433F50BC2AF901712803E125E4D88CB
:1043000082F5831250C1850882850983F08A8289EB
:104310008312438DA3A3E0C0E0E50824FFF582E506
:1043200009124544D0E0F0E50824FEF508E509341B
:10433000FFF509050C150A12476B1245BF602112E3
:104340004396640270F112437CEE40B0125ABCA254
:10435000E550E4850E82850F837401F0E50A70D77D
:10436000E50BA2E092AF850882850983E50CF0E5B4
:104370000824FFFAE50934FFFB023FB7124382A28B
:10438000E622EE2411F582E43FF583E02212439108
:1043900022125E92A3228E828F83A3A312563D1215
:1043A00065692274F01212F474F312196A7403121C
:1043B0001BFBE9F07402121BFBEAF08B0B852182D8
:1043C000852283E4F00412192C12333CE9F890059D
:1043D00023E0292437F508FA7B001221788A0C8B18
:1043E0000DAE0CAF0DEA4F7003024529EA2402F529
:1043F0000EE43FF50FA808EA28F8E43BF9850E82A1
:10440000850F83124EBD900523E0F9FAC3E49AFAB2
:1044100095E0FB850E82850F83E02AF50CA3E03B37
:10442000F50D900521123FA3750A0078081218C0F7
:10443000E9FC7D00AA0CAB0D1258F71218A1AC21B3
:10444000AD227401121BFBE0F9E50C24FFFAE50D27
:1044500034FFFB1233428A828B83E4F0E50BC454B1
:10446000F0F99017A3E0C4333354C0F890051DE071
:10447000A2E0E43313134849440FC0E0EA24FFF5F7
:1044800082EB124544D0E0F0EA24FEF50CEB34FF59
:10449000F50D7403121BFBE0F87402121BFBE0C461
:1044A00054F048850C82850D83F0A80C850E82851A
:1044B0000F83126BA92AC3988E828F83A3A3A3A311
:1044C000F0850E82850F83E8F0A3E50DF0124549D3
:1044D000124551E4F0740C121BFBE4F075080775EB
:1044E000091778081218C01269261218A1852182AE
:1044F000852283E06009EE240E125ABE4408F012B1
:10450000352EE9F9E4F508F50978081218C474069F
:104510001219341245341218A1E97006EEFAEFFBB5
:10452000800BEEFAEFFB12217E7A007B00740D0205
:104530003FB47903EEFAEFFB123546740222EE2403
:10454000FFF582EF34FFF58322EE12413EE4F0A343
:1045500022F012455622EE1268493FF5832274F28A
:104560001212F48A0C8B0DA2AFE433F50AC2AF75B8
:104570000800750900901712802C12477B50248583
:104580000C82850D83A3A31269398E828F83A3A326
:1045900012556D123534E9600A124776C2E6F08E84
:1045A000088F0912476B1245BF70CFE508450960B7
:1045B00006124658D2E6F0E50AA2E092AF800DE07E
:1045C000FEA3E0FFEE4F2274021218A17F0602162E
:1045D0004274F01212F48A0E8B0F8C0C8D0D750A3A
:1045E00000A2AFE433F50BC2AF7E007F009017123C
:1045F0008010AE08AF09124650125ABCD2E7F01232
:10460000554B12555F6034124658A2E750F18508A9
:1046100082850983A3A31216CBAC0CAD0DAA0EABF9
:104620000F12353A74021218A1E960D3EE4F60C23E
:104630001249F2700612466AD2E4F0E50BA2E0924B
:10464000AFEE4F6006123420750A01A90A023FB787
:10465000124382D2E4F0EE22E5081268633509F5D0
:1046600083E022AA82AB831222FE8E828F83A3A3D1
:1046700012563DE02274F21212F474FE12196A7599
:104680000C00750D00852182852283E4F0A3F0A241
:10469000AF33F50AC2AF9017121278E4802BEE24E4
:1046A000FBF582EF34FF123FA1780C1218C41247B9
:1046B000591218A1EEFCEFFDAA21AB2212219CAEEB
:1046C00008AF09901718E014F0EE4F602B12477BEB
:1046D000501DEE240BF8E43FF98882F583E024FFB7
:1046E000F0A3E034FFF088828983125F4060AF8ED0
:1046F0000C8F0D12476B80A1E50AA2E092AF9017D4
:1047000018E0602C900524E0640F60069017A2E08A
:10471000701E7AF07B1612361E9082FF1216C77A30
:10472000F07B161257691218A1800574F012564AD0
:10473000AA21AB221221A28A088B09AE08AF09EA8E
:104740004F601312334E124776A2E28E828F83A3FC
:1047500050D974E980D70245C7EEFCEFFD7A127B91
:10476000171221AE7402228E0A8F0BEE24FBF58203
:10477000EF34FFF58322EE12438322124382A2E735
:104780002274F71212F4EAFEEBFF12334E12563681
:10479000123803E96401900540700AE02401F8A38F
:1047A000E0340080031255BCF9125CBE1257C19070
:1047B0001718E0701F900524E0640F70177AF07BE3
:1047C0001612361E9082FF1216C77AF07B16125709
:1047D000691218A1A8A8C2AF901718E004F0E8A2C7
:1047E000E78004E508A2E092AF025BCC74F71212F6
:1047F000F4EAFEEBFFEA124822F012334EEEFCEF31
:10480000FD7A127B171221A8A8A8C2AF9017181220
:104810005110900524E0640F700579081234E60207
:104820005BCC124383C2E42274F71212F474EA12CE
:10483000196AEAFEEBFF90051DE0602A852182855A
:1048400022837401F0121BFBE41248DD121BFB12E1
:104850004663C0E0740A121BFBD0E0126BC9740BF4
:10486000121BFB125E29741602497774F71212F4B8
:10487000EAFEEBFF123330E9F974DC69601E74DD87
:1048800069601974E469601474F369600F74DE6917
:10489000600A74DF69600574DB697007EEFAEFFB8C
:1048A0001234EC025BCC74F71212F474EB12196A36
:1048B000EAFEEBFF85218285228374061248DD1211
:1048C0001BFBAA82AB831222FEEE2408FCE43FFD10
:1048D000740A121BFB125E297415024977F0EA2450
:1048E00013FCE43FFD74022274F71212F474F71201
:1048F000196AEAFEEBFFEA2430125ABE605DEA1242
:104900004968121BFB7403F09005391216CB12494B
:104910005E1216CB90054CE0F97404121934EEFACD
:10492000EFFB12333674041218A1E9F974DC6960E4
:104930002374DD69601E74E469601974F36960149E
:1049400074DE69600F74DF69600A74E86960057479
:10495000DB697007EEFAEFFB1234EC02412CEE2417
:104960002EF582E43FF58322126D3AAA21AB221282
:1049700022FE74082274031218A1025BCC74F21296
:1049800012F48A0C8B0D750A00750B007508E7A2EE
:10499000AFE433F509C2AF901712800312476712D4
:1049A00045BF602512477B50F31249F270EEEE24AA
:1049B00032124B89E06870E4780A1218C412475921
:1049C0001218A1901718E014F0E509A2E092AFEEDA
:1049D0004F6013EEFAEFFB12334E79F0EEFAEFFB75
:1049E0001234EC750800A908AA0CAB0D1234EC02C5
:1049F00045CC124556E064012274F41212F474F7A7
:104A000012196AEAFEEBFF8A82F583A3E064F37071
:104A100003024A978A828B83A3E064DF60798A82EB
:104A20008B83A3E064E8606F8A828B83A3E064DBFE
:104A30006065123390E9F5087055EE240E125ABEE7
:104A4000604D124AA160487408121BFB124AB01252
:104A500016CB7508FF7509FF78081218C48E828F6F
:104A600083A3A3A3A3A3A3A3A3E0F97404121934FB
:104A700012333674041218A1E9F50874F369600F53
:104A800074DF69600A74E869600574DB69700F8E11
:104A9000828F83A3E508F0EEFAEFFB12339C023F0E
:104AA000C6EE240FFAE43FFB79091233D2EA4B2217
:104AB000740212632F74FFF0A3124ABD22125E7DAE
:104AC000A3A32274F11212F4EAFEEBFF7508008A28
:104AD00082F583A3A3A3A3A3A3123FE44003750815
:104AE000E88A828B83A3A3A3A3A3A3A3A3A3A3E086
:104AF000C3941040057508E880138A828B83A3A3B2
:104B0000A3A3A3A3A3A3A3A3E0640F600B90177FA9
:104B1000E0540870037508E8EA240B124B89A3A33C
:104B2000A3A3A3A3A3A3E0C398500DEA240B125A96
:104B3000BE640F60037508E890053DE0F47003A3C0
:104B4000E0F470037508EC7A237B0012220E8B0BC5
:104B5000A90B9016F9124B9860278E828F83A3A31E
:104B6000A982AA83890C8A0D750E00780C1218C0D0
:104B70007C237D009016F9E0FA1258F71218A180F4
:104B80000375081AA908026921F582E43FF583E05C
:104B9000F88A828B83A3A322EAF0A3EBF0EA4922EE
:104BA00074F51212F4EAFEEBFF8A82F583A3A3A345
:104BB000A3A3A3A3A3E0900524124C30E090053FEB
:104BC000F0EA240B125ABE90051F124C30A3E0905D
:104BD00017A3F0F9121FBC9017A3E0600BEE24049A
:104BE000125AB02406124C269017A2123FBC600441
:104BF0007401800274009016FB1272741218C07C4B
:104C00000B7D007AFC7B161258F71218A1EE2418BF
:104C1000F508E43FF50978081218C07C0B7D007A8E
:104C2000077B170258E4FAE43FFB79E1121FA42244
:104C300012725EA3A3A3A32274F71212F4EAFEEB8E
:104C4000FF8A82F583A3E07003123F72126DE502C2
:104C50005BCC74F71212F4EAFEEBFF9016F9125FC8
:104C60004060109016F912556D9016F9E4F0A3F01B
:104C70001222148E828F8374081256511237E60264
:104C80005BCC74F61212F49017A2E060109016FB41
:104C9000E0700A124CA0EA4B6003123426026EDF69
:104CA00090051FE0FB90053FE0FA900524E0F91223
:104CB00033482274F41212F474E712196AEAFEEB14
:104CC000FF750B018A82F583A3A3A3A3A3A3A3E08B
:104CD000A2E25069EA242BF582E43F126937EA2404
:104CE00013FAE43FFB123354E97052908200E064FF
:104CF000017005750B008045124D721218C07C0BB7
:104D00007D00741112192C1258F71218A112352EA9
:104D1000E9FA740E1219248808890978081218C44F
:104D200075083075090078081218C4EE126B9212DB
:104D300016CB126D2C7901123FDE1218A18521824B
:104D40008522837410F0126D2C7402121BFBAA8250
:104D5000AB831222F2EE242B127525740B121BFB6F
:104D60001257C1740D121BFBE50B126F9E741902D2
:104D70003FC8EE240812727C22C082C0839017A321
:104D8000E060031235A00256E1C082C08390179AFA
:104D900074D8F0A37416F0A374DCF0A37416F0A317
:104DA00074E8F0A37416F090191474AFF0A3743B78
:104DB000F0901784742AF0A37433F090171D746078
:104DC000F0A37433F090171F7466F0A37433F0905F
:104DD000177FE044020251E5C082C083EAFCEBFD8C
:104DE0007903025EECC082C083790802705FC082E2
:104DF000C08374FE12196A901725740EF0A37434E0
:104E0000F09017277408F0A37434F080077A127BAF
:104E100017124E4A901712125F4070F19017141239
:104E20005F4060097A147B17124E4A80EF90171288
:104E3000E4F0A3F0901718F0A3F0A3F090173374E8
:104E40004AF0A37434F07402801C1221A2852182DE
:104E5000852283EAF0A3EB124E5E12351C22F0AAE3
:104E600021AB222274111218A10256E174F612121B
:104E7000F4E9FF74EA29F582E4343EF583E493FE15
:104E8000FA7B00122178EA4B6007EA2E124EBA80B4
:104E9000267A027B00122178EA4B601774DF2FF527
:104EA00082E4343EF583E4938A828B83F0A3741A00
:104EB0001252837A007B00026EDF1257B0E8126E46
:104EC00059A3A3A3A3E4F022E9FC740629F8EAA2FB
:104ED000E0501EE875F00A84E5F0F96014740A28C1
:104EE000C399F8E9C394054004740A28F8740B28A0
:104EF000F8ECC394134004791480027906E8297908
:104F0000002409F85001097A0A7B0012112CE8F9F3
:104F100002186EC082C08390177FE05402600A12AC
:104F200029DCE960047901800279000256E1C0823F
:104F3000C08390177FE054026014901718E0700A45
:104F4000125F3D6009124F535004790180027900CD
:104F50000256E1123F96A2E722C082C0839081FDF3
:104F6000E0F890171AE0C398500512217880047A6F
:104F7000007B000256E1C082C08312351C7900021A
:104F800056E1C082C08374FE12196A85218285228F
:104F900083EAF0A3EB1250ECA3A3A3A3A3E0600A5F
:104FA00014605724FE605A02505C900524E0640FA0
:104FB00060121234F2E9700C1255679017211256E4
:104FC0003912380390054CE0C0E0852182852283A8
:104FD000125E60D0E01250EC741412687DFCA3E005
:104FE000FD7A147B1712219CA8A8C2AF90171A1241
:104FF000511079201234E6024E461253BA741580CD
:10500000D91253BAA3A3A3A3E060511253BA124614
:105010006EC0E0852182852283E02406F582E43B90
:10502000F583D0E012687D2402F8A3E03400F9880B
:1050300082F583E02401FAA3E03400FB88828983AF
:10504000EAF0A3EB12687D1253FA85218285228350
:1050500060131250C160051250D34048AA21AB2200
:1050600012351C80921250C160F21250D35021129E
:1050700050E0FA852182852283A3E0C824061253DA
:10508000B6F87420126075343FF583E4936A6014B7
:105090008521828522831250C1640870BF1250E0BE
:1050A000640870B81250E0141250F4240AC0E0856D
:1050B0002182852283125639D0E01250F404024F27
:1050C000DA1250C5221255BCC82406F582E438F520
:1050D00083E0228521828522831250C5C3940A224F
:1050E000852182852283124391A3E0221250FEF58E
:1050F000838882221250FEC824061253E422F085CF
:1051000021828522831255BC22A8A8C2AF9017190C
:10511000E004F0E8A2E792AF22C082C08390172992
:10512000125F4060081253C11238038002790002F6
:1051300056E174F71212F4EAFEEBFFEA12455774D7
:105140000112576FF8A3E0F91241391257C1EA244E
:1051500035125ABEC0E0EA2413F582E43FF583D04D
:10516000E0F0EA2436125ABEC0E0EA2414F582E4E4
:105170003FF583D0E0F0EA2438125ABEC0E0EA24BA
:1051800018F582E43FF583D0E0F0EA242FF582E4BD
:105190003FF5831216CB126D39EA2431125ABEF94B
:1051A0001245381218A1E9F5087007EEFAEFFB1264
:1051B0003426A908025BCCC082C0831234F2E960B5
:1051C000047920800279010256E1C082C083EA247A
:1051D000111251DBD2E0800DEA240DF582E43BF59B
:1051E00083E022F0A3F00256E1C082C0831251D8BE
:1051F0006401701112527D400C8A828B83A3E0F906
:105200001234EC806612526EA2E650128A828B83B0
:10521000A3E0F9901723125639123803804D12512A
:10522000D86401700D12527D50088A828B837430CD
:1052300080368A828B83A3E0641B8A828B8370040E
:1052400074228024A3E0700D1251D8F8740B126000
:1052500075343F800B1251D8F874DF126075343EFC
:10526000F583E4938A828B831252830256E11252B1
:105270007222EA2410F582E43BF583E02212527296
:10528000A2E322F090177AE0F91221842274F71237
:1052900012F4E9FE125F3D70030253B3EE60147422
:1052A0001B6E701AE812684939F583E064057003D3
:1052B00002538B90171C1253C1A3E402539274E95A
:1052C0006E7068E82412F582E439F583E0700B1201
:1052D00029E2E96005125404606179EE121F2690FC
:1052E000171B1253DB90171B603A12540790171BC1
:1052F000700B1253DB14F01220E80253B31253F96F
:10530000C2E71255A2240D1253B66403700912535A
:10531000D4125558D2E2F079ED121F261253EC1236
:10532000380380781253C774E9806774E16E703E69
:105330001229E2E960551254047050900546E0C00D
:10534000E01253D42412F582E438F583D0E0F090D3
:105350000535E0C0E090171B1253D01253D0D0E0B7
:10536000F0900535E004F079011220D08045741CDE
:105370006E701890171B12556D90172B125639121C
:10538000380390171BE4F0A3F0802890171B1253EA
:10539000C7EEF090171B12556D123414125583E0AE
:1053A0005480600312704E90171BE4F0A3F0791044
:1053B0001234E6025BCC1253E422852182852283DB
:1053C000A3E0F5838882221253CB22125641A322F6
:1053D000125E8E2290171B125E6F22125E6F2412D5
:1053E0001253E422F582E438F583E02290171B1271
:1053F000557190171F12563D22E0F8A3E0C8241003
:105400001253E42290171B12558AE054042274F4BC
:105410001212F4750A00750B00A2AFE433FEC2AF9E
:10542000125F3D6003025501125636123803E944FB
:1054300010F8901712800985080A85090B12554B40
:1054400012555F7003025501124658586870E8788B
:105450000A1218C4AC08AD0912475D1218A19017C2
:105460001BE508F0A3E5091255A2125558A2E75012
:1054700003025508901719E014F0EEA2E092AF90E5
:10548000171BE0240EF8A3E03400F9E8FEE9FF88DA
:1054900082F58312556D90171B1250E6F91233D81E
:1054A000E9901716126BDC8E828F83E054806018AF
:1054B0001253D424131253B6F9121FE01253D424FA
:1054C000141253B6F9121FD4125583A3E05401608D
:1054D0005F901716125F4060451255996040125553
:1054E00099F8790090171612556D121134E8C0E042
:1054F000125577D0E01255A7C3941340117402805F
:105500000FEEA2E092AF8037901718025477740024
:10551000C0E090171CE0C8125542D0E0800D125533
:105520007774011255A21255427401F07903800C70
:1055300090171B1253F9A2E1B3E433F91220D00201
:105540003FCB241AF582E438F58322E50824FBF5E5
:1055500082E50934FFF583221268631253E72212B1
:105560003FA7E508450922852182852283125571CE
:1055700022E0FAA3E0FB22125E6C2419F582E438E3
:10558000F5832290171B12558A221255BCC812555A
:10559000922212608338F58322125E6C2418125313
:1055A000E4221255B4C8221255B4F5838882A3A30D
:1055B000A3A3E022F090171B1255BC22E0F8A3E051
:1055C0002274F71212F4EAFEEBFF123516125ABBE0
:1055D000A2E3400A1249F270059081FB800390819A
:1055E000FCE0F9EEFCEFFD7A127B171221B4E960C2
:1055F00038EEFAEFFB901725125639123803EE24D5
:105600000E125ABE54047012125109EE12413AA3FE
:10561000E05401701E1234208019EEFAEFFB90174F
:105620001D125639123803800A8E828F83A374F1BB
:1056300012564A025BCC90172712563D2212564151
:1056400022E0F8A3E0F58388822212565112341426
:1056500022F0EEFAEFFB220256DA74F71212F4EAA5
:10566000FEEBFF790090177FE05402700CEA2433C0
:10567000125ABE5404600279E890177FE0546070BB
:105680000CEA2433125ABE5402600279E88A828BF3
:1056900083A3A3A3A3E0F8908201E0C3985002790A
:1056A000E8EA2431125ABE700CEA242E125ABE7057
:1056B0000479F5800BE97005123402E9F9E9600715
:1056C000EEFAEFFB1234EC025BCCC082C0838A821C
:1056D0008B83740DF01237E68007C082C0831234CA
:1056E00020D083D08202186E74F41212F4EAFEEB1A
:1056F000FF8A82F583E4F0A312576F54049081FB74
:105700007012E0F8901719E0C398401279F1123442
:10571000EC023FCBE0F8901718E0C39850EE125718
:1057200075A3E054016037EA2437125ABEC39405CA
:105730004033EA2433125ABE540570297A2D7B1760
:1057400012361EEE2437F582E43FF583123F7C7853
:10575000081218BC7A2D7B171257691218A1EEFA9D
:1057600012616680AC79E880A5123612740422F0CA
:10577000125775E022EA2433F582E43FF583227460
:10578000F61212F4E9FE2451FAE43400FB122178F7
:10579000EA4B6015EE8A828B83A3A3A3A3F0EA24CD
:1057A000511257B01257C180047A007B00026EDF9D
:1057B000F8E43BF98A828B83A3A32212752F9017FA
:1057C000F7E8F0A3E9F0220256DAC082C08390170E
:1057D000367474F0A37434F0A374A4F0A37434F09A
:1057E000A3747AF0A37434F0A37480F0A37434F03B
:1057F000A3749EF0A37434F0A37492F0A37434F0F5
:10580000A3748CF0A37434F0A374AAF0A37434F0DE
:10581000A374B0F0A37434F0A374B6F0A37434F09E
:10582000A374C2F0A37434F0A37486F0A37434F0AC
:10583000A3746EF0A37434F0A37468F0A37434F00E
:105840009017527498F0A37434F0A374BCF0A3744E
:1058500034F0A374D6F0A37435F0A374C8F0A37425
:1058600034F0A374CEF0A37434F0901776E4F09083
:105870001779F09017621258877402F090176B1224
:10588000588774010251E574E6F0A37434F0A32242
:1058900074F51212F474F112196A8521828522833B
:1058A0007402F07401121BFBE9F060047AFF7BFFC5
:1058B0007402121BFB12632475086E750917750AB2
:1058C0000078081218C07C0B7D007407121BFBAA1D
:1058D00082AB831258F71218A1AA21AB221237E625
:1058E000740F80031258F71218A17F030216427C2E
:1058F0000B7D007A6E7B1712215A74032274F71203
:1059000012F474FD12196A852182852283740AF0CB
:105910007401121BFBE9F07402121BFBEA126F9E6A
:1059200002497574F61212F474F712196AEAFEEB62
:10593000FFEA1259751259A57402F0EA2428FCE412
:105940003FFDAA21AB221222F2EE243112597B2410
:105950003312699D1218C4740212193479831A1A09
:105960001245361218A1E9F5087007EEFAEFFB129E
:105970003426026ED812413E740122F582E43FF5CE
:1059800083123FA7125E45F583125993E8F0A3E90D
:10599000F0EE2212599B8A828B8322E024FFF8A327
:1059A000E034FFF922F0A3E4F0EA1245572274F044
:1059B0001212F412740D121B887808790C12118DD2
:1059C00078081218BC7A657B17023FAF74F4121284
:1059D000F474C612196A900524E0640F600D8521E5
:1059E00082852283742E12634380227A5C7B171295
:1059F0003FED12113488088909E4F50AF50B78089F
:105A00001218BC7A5C7B171257691218A1743A02FB
:105A10003FC874F51212F4EAFEEBFF8A82F583A305
:105A2000E0F87078EA2430125ABE64026007E0643D
:105A300003600278E8EA2426F582E43FF583123F0A
:105A4000E6400478E88058E87052EA2426124C2692
:105A5000EE2431125AB02430125ABE6402700EEE97
:105A600024281275259005331257C18017900533ED
:105A700074FEF0A304F0EE2428FCE43FFD7A2A7BB8
:105A8000051222FEEE241B124D751218C01258EF9B
:105A90001218A1EEFAEFFB123462E9F8E8600EE8A2
:105AA0008E828F83A3126D417417126DEB0258EA38
:105AB000FAE43FFB7950121FA4EE22EE2410F58287
:105AC000E43FF583E02274F61212F474F712196AB7
:105AD000901779E070377401F0F912209AAA21AB7F
